:020000040000fa
:080000000001040000000000f3
:020000040000fa
:10000800a2070000a2070000a2070000a207000044
:10001800a2070000a2070000a2070000a207000034
:10002800a2070000a2070000a2070000c20100000a
:10003800a2070000a2070000e0010000a2070000dc
:10004800a2070000fe010000a207000094010000c2
:10005800a2070000a2070000a2070000a2070000f4
:10006800a2070000a2070000a2070000a2070000e4
:10007800a2070000a2070000a2070000a2070000d4
:10008800a2070000a2070000a2070000a2070000c4
:10009800a2070000a2070000a2070000a2070000b4
:1000a800a2070000a2070000a2070000a2070000a4
:1000b800a2070000a2070000a2070000a207000094
:1000c800a2070000a2070000a2070000a207000084
:1000d800a2070000a2070000a2070000a207000074
:1000e800a2070000a2070000a2070000a207000064
:0800f800a2070000a2070000ae
:020000040000fa
:10010800a2070000a2070000a2070000a207000043
:10011800a2070000a2070000a2070000a207000033
:10012800a2070000a2070000a2070000c201000009
:10013800a2070000a2070000e0010000a2070000db
:10014800a2070000fe010000a207000094010000c1
:10015800a2070000a2070000a2070000a2070000f3
:10016800a2070000a2070000a2070000a2070000e3
:10017800a2070000a2070000a2070000a2070000d3
:10018800a2070000a2070000a2070000a2070000c3
:10019800a2070000a2070000a2070000a2070000b3
:1001a800a2070000a2070000a2070000a2070000a3
:1001b800a2070000a2070000a2070000a207000093
:1001c800a2070000a2070000a2070000a207000083
:1001d800a2070000a2070000a2070000a207000073
:1001e800a2070000a2070000a2070000a207000063
:0801f800a2070000a2070000ad
:020000040000fa
:100200000f8320000eff20000e0188000000000078
:1002100000012000200288000c00070080b52300a8
:100220000100200011000700000020000000e00095
:100230000200320000000200000000007402020010
:10024000000000000040da000000fe004440a90069
:10025000a06922000000e00003003200000020003e
:10026000a00188004440a800000006009101880019
:10027000800078000000eb0015003700e2804000ad
:1002800032a0b4009101ba00e280400032a0b40074
:100290009102ba00e280400032a0b4000002eb00fc
:1002a000472bde00f507b200602ce10004003a00a5
:1002b0000059eb008301e900fdff3e000400370018
:1002c0006128e100010032000082eb000400070019
:1002d0001101ba000200e000e8ff3a000000060049
:1002e0003159ba008301e9000c0032002159ba00eb
:1002f0008301e900080032000400e00003003a0036
:10030000e280400032a0b400f5ff370011d9ba00f6
:100310008301e900faff3a008100e800e180400033
:1003200032a0b40000000600841f78003400f800fa
:1003300004002000a40188000000fa0004148000da
:1003400084408800141480009440880024148000a5
:10035000a440880084408000b4408800944080001d
:10036000c4408800a4408000d4408800a1e2a900d5
:100370008560a9000080fa003400f9004f0278007f
:1003800000400600841f78003400f80004002000bc
:10039000a40188000000fa000002eb0004088800b5
:1003a000244080000402e800244088008460a90002
:1003b0000080fa003400f9004f0278000040060087
:1003c000841f78003400f80004002000a401880095
:1003d0000000fa000002eb0034088800144080009e
:1003e0000402e8001440880084c0a9000080fa00dc
:1003f0003400f9004f027800004006003600f80093
:10040000809fbe00829fbe00849fbe00869fbe006c
:100410003400f80000002000a00188000000fa006d
:10042000354180009410800004427800c68220008c
:1004300004f37a0034418000e20f520004003c00d3
:10044000344180000402e800344188000500370090
:10045000c482200004007800e51b07000002eb00c6
:10046000344188008520a9000080fa003400f9009a
:100470004f03be004f02be004f01be004f00be0042
:100480003600f900004006000200fa00000f780074
:100490000002eb001440880011e1a80000000000f9
:1004a000144080009e0f5200fdff350011e1a900ad
:1004b0000080fa00000006000200fa00000f780039
:1004c0000002eb002440880005e1a80000000000c5
:1004d000244080009e0f5200fdff350005e1a90079
:1004e0000080fa00000006000400fa00000f780007
:1004f00011079800c162a900a942a900c742a8003b
:10050000a962a800c762a800a982a800c782a900a2
:10051000511c07005c1c070062170700001707004a
:10052000721807000c1c0700121c07008f1b070025
:10053000aa1807000002eb0004408800f000070042
:10054000a1e2a900e05f2a00a91b07000100370013
:1005500000000000a1e2a80040012000caff07003f
:10056000d5408000047d2000848f520013003600a7
:100570009a180700e01f2a00e418070040602a00cc
:100580009b1b07000400370016010700a1e2a8002a
:1005900040012000bcff0700d5408000047d200002
:1005a000848f5200f8ff3e0080612a00901b0700f4
:1005b0000002eb0004408800881807000440800017
:1005c000e30f52002200320014c0b3000440780050
:1005d0001ee8b7000002eb00e44088000e00370080
:1005e000e4408000c5822000e5427a00e4408000bb
:1005f000a69f280066427a0084cf52000300320092
:100600000042eb00044078001ee8b700e4408000a0
:100610000402e800e4408800e4408000e30f520058
:10062000efff3400e481200014427800e04f5200d4
:1006300007003200340020000440880010632a00c4
:100640006b1b070065180700e05f2900af18070063
:100650000440800005002000360020000700200034
:10066000860f5200878f5a00b9ff3e0004600100d8
:1006700003003700250037002f0037004b003700fc
:10068000e09f2800a1180700451680000480200084
:1006900004826200e00f52000600320080642a00eb
:1006a000531b0700b100070014002000044088001d
:1006b0004a180700d000070044408000e00f5200b5
:1006c0001100320045408000f4072000848f520062
:1006d0000d003e0054408000e00f52000a0032003e
:1006e00055408000f4032000848f520006003e0035
:1006f00040662a003e1b07009c00070014002000f3
:10070000044088003518070067003700e0df280044
:100710007e1807008040eb000040eb00a91707009f
:100720008482200004007800851a0700b2000700c8
:10073000f20007005c00370076000700271807006a
:10074000e01f290071180700f0672a00281b070026
:100750000002eb00e440880007003700d0692a005f
:10076000231b0700803e200047ff0700e440800075
:100770000402e800e4408800e4408000e40f5200f6
:10078000f6ff3400206a2a00191b07005c000700ee
:10079000858220000042eb00844a7800140020008b
:1007a000044088000d1807003f0037007e00070056
:1007b0009100070044408000e00f52002200320008
:1007c00045408000f4032000848f52001e003e004c
:1007d0005000070001180700e09f29004b18070090
:1007e000106b2a00021b07000002eb00e4408800a7
:1007f00007003700d0692a00fd1a0700803e20005c
:1008000021ff0700e44080000402e800e440880083
:10081000e4408000e40f5200f6ff3400206a2a0012
:10082000f31a070036000700c58220000042eb00e3
:10083000844a78000002eb00344188000002eb009b
:1008400004408800e51707004540800004042000ac
:10085000848f52001300360045408000f4072000ca
:10086000848f52000f003e00206c2a00e01a07001f
:10087000da170700e0df290024180700803821007c
:1008800001ff0700c58220000042eb00844a780087
:100890000002eb00344188000002eb0004408800b5
:1008a000ce170700000000002aff37000200fa0000
:1008b000000f78000002eb00e44088000b003700d6
:1008c000cb82a8001e007800effe0700cb82a900b3
:1008d000450120001e82520004007800eafe070055
:1008e000e44080000402e800e4408800e440800026
:1008f000e40f5200f2ff34000080fa00000006000e
:100900000000fa0010002000e8ff07000080fa0055
:10091000000006000000fa0020002000e3ff0700ae
:100920000080fa00000006000200fa00000f7800c4
:10093000c562a8001e007800dffe0700c562a9009e
:10094000441f20001e02520004007800dafe070057
:100950000080fa00000006000000fa00a00f20004e
:10096000f1ff07000080fa00000006000000fa0016
:100970000002eb00e440880005003700200320005f
:10098000e9ff0700e44080000402e800e44088003a
:10099000e540800034062000848f5200f7ff3400c9
:1009a0000080fa00000006000000fa000002eb00e0
:1009b000e44088000500370020032000daff07002c
:1009c000e44080000402e800e4408800e540800044
:1009d00034062000848f5200f7ff34000080fa00b4
:1009e000000006000000fa00201c2000ceff0700d7
:1009f0000080fa00000006000000fa00d1a2a80062
:100a0000d1c2a900a1e2a800200320009efe070099
:100a1000b44080006440880064408000140ab10043
:100a2000050020000400be00a80107000002be006f
:100a3000324d2a0043d123000400be00f801070014
:100a40000002be000400be00820107000002be00da
:100a50000402780044408800d1a2a900d1c2a800b5
:100a6000a1e2a8002003200087fe0700c440800008
:100a70007440880064408000a40fb100050020008d
:100a80000400be00910107000002be0052ba260019
:100a900063d223000400be00e10107000002be0093
:100aa0000400be006b0107000002be0004027800d3
:100ab0004440880074408000241cb10005002000e0
:100ac0000400be00810107000002be00a2e923006d
:100ad000b3cb23000400be00d10107000002be001a
:100ae0000400be005b0107000002be0004027800a3
:100af000544088000080fa00000006000000fa0060
:100b000054408000e00f5200480032005440800002
:100b1000ec0f520045003e008fff0700454080006b
:100b200044052000848f520040003600454080007c
:100b3000f4072000848f52003c003e0024418000d6
:100b4000e40f520029003a0014c0b30004407800ba
:100b50001ee8b7000002eb00e44088000e003700fa
:100b6000e440800085822000e5427a00e440800075
:100b7000669f280066427a0084cf5200030032004c
:100b80000042eb00044078001ee8b700e44080001b
:100b90000402e800e4408800e4408000e30f5200d3
:100ba000efff3400e481200014427800e04f52004f
:100bb0000a003a00091707008040eb000040eb00f4
:100bc00080160700206d2a005d19070000fa20003a
:100bd0002dfe0700011707000d003700240020003c
:100be00004408800fd16070009003700fb160700c7
:100bf0008040eb000040eb0072160700206d2a00d9
:100c00004f19070000fa20001ffe0700f316070027
:100c10000002eb00244188002541800086822000ec
:100c20000042eb0004f37a00ec1607005440800009
:100c3000e00f52002500320054408000ec0f5200bb
:100c400022003e0044ff070044408000e00f5200b5
:100c50000f0032004540800094022000848f520033
:100c60000b003e0024418000e00f520007003400da
:100c7000244180000402e9002441880025418000cd
:100c8000868220000042eb0004f37a00d3160700ae
:100c900045408000a4022000848f52000b003600e3
:100ca0004540800034052000848f520007003e003c
:100cb000254180008682200004c3b30004f37a003b
:100cc0000502e80024418800c41607005440800053
:100cd000ed0f52003000360054408000f90f5200f2
:100ce0002d003e001cff070044408000e00f520032
:100cf0000b0032004540800094022000848f520097
:100d000007003e00254180008682200074c3b300a6
:100d100004f37a000502e80024418800af160700ba
:100d200045408000a4022000848f52000b00360052
:100d30004540800034052000848f520007003e00ab
:100d4000254180008682200084c3b30004f37a002a
:100d50000502e80024418800a016070045408000f5
:100d600044052000848f52000b003600454080006f
:100d7000f4072000848f520007003e0025418000c8
:100d80008682200094c3b30004f37a000502e800d1
:100d9000244188009116070054408000fa0f520049
:100da000310036005540800064022000848f5200dc
:100db0002d003e00e8fe070044408000e00f520096
:100dc0000b0032004540800094022000848f5200c6
:100dd00007003e00254180008682200044c3b30006
:100de00004f37a000502e800244188007b1607001e
:100df00045408000a4022000848f52000b00360082
:100e00004540800034052000848f520007003e00da
:100e1000254180008682200054c3b30004f37a0089
:100e20000502e800244188006c1607004540800058
:100e300044052000848f52000b003600454080009e
:100e4000f4072000848f520007003e0025418000f7
:100e50008682200064c3b30004f37a000502e80030
:100e6000244188005d160700554080007402200070
:100e7000848f52003100360055408000340320003a
:100e8000848f52002d003e00b3fe070044408000d6
:100e9000e00f52000b003200454080009402200019
:100ea000848f520007003e0025418000868220008a
:100eb00014c3b30004f37a000502e800244188005b
:100ec0004616070045408000a4022000848f52008f
:100ed0000b0036004540800034052000848f52000e
:100ee00007003e00254180008682200024c3b30015
:100ef00004f37a000502e800244188003716070051
:100f00004540800044052000848f52000b003600cd
:100f100045408000f4072000848f520007003e0007
:100f2000254180008682200034c3b30004f37a0098
:100f30000502e80024418800281607000080fa0016
:100f4000000006000040da000000fe00889fbe009e
:100f50008a9fbe008c1f780099000700a000330014
:100f600003866c006450e1002e0032006420e10032
:100f7000330032006150e1002f0032006120e100b7
:100f80003100320085855500eb07b00009002000d4
:100f900008042000050037000804440089844c0040
:100fa0000a0031000603430087834b000001530011
:100fb00081815b00f8ff33000203be000800a0003f
:100fc0000804440089844c00f6ff3900c639dd006e
:100fd0008301730001003200130020008904d10056
:100fe0000884d3000998a300050032000800a70078
:100ff0000300a0008904d1000884d3008b05e80019
:101000008904d1000884d3000001eb000281d200e2
:101010003000070001f0a1000cf0a70001f0a000d3
:10102000780037006420e1007a0032000801be0039
:101030000200be00f7ff37006120e10075003200ba
:101040006000b800f3ff37000000200001f827001f
:10105000f0ff37000001be00440007000470a70045
:1010600003f0a10003f8a30013003a006509b100e2
:1010700010003200090035006928e1000200350047
:1010800001002800000005000000400081804800a9
:101090008502e900fcff3a0000000600f88f4200dc
:1010a000050035008100d1000080d3008502e800f2
:1010b000fcff3a00000006008000eb000000050085
:1010c0004f89de0082017800890037006011b80086
:1010d0009700370081002000618055000b003d0023
:1010e0000b00200061fe2f000100e1001d00340014
:1010f00082817100610164008904d1000884d300f9
:101100000000e800faff3a0071002000610064006e
:101110000300700002006000090032006104440016
:10112000e0844c000988a500050032008b05e8002a
:101130006808e10002003a008904d1000884d30065
:10114000f20f20000258e10005003d00c75ddd0000
:10115000f907b200898075000800780000000600d9
:101160000bf827008b00780000000500c70ade009e
:10117000f107b200f50fb20008003200e1cf4200e3
:10118000020032000170a00024000500810f7000f1
:10119000010032000408050044000500810f7000c2
:1011a00002003a00140005008502e900000040003a
:1011b00081c04800fcff3b000170a0002400050036
:1011c0000004be00e9ff07000003be000405be00e6
:1011d0000200be00e5ff0700844f75000000060016
:1011e0000200be006450e100050036006420e1000a
:1011f000020036000968a30001003a000800be00a2
:101200000160a0004f0678004f05be004f04be00ed
:1012100000000600f0ff2f00f1ff2700f9ff370064
:10122000889fbe008a9fbe008c1f7800e4ff0700e5
:10123000ebff330003866c006450e10024003200b1
:101240006420e100270032006150e10022003200fa
:101250006120e100210032008b854200eb07b100e4
:101260000134b800003ab8000804420089844a00fa
:10127000013ab8000030b8008880400009014a00f7
:101280000400330000004000818048000201490052
:101290008b05e900c909dd008301700001003200ff
:1012a00013002000c814de004814dd004709de00ea
:1012b0001200b200c808de000884700085ff070035
:1012c00001f0a1000cf0a70001f0a000cdff370055
:1012d0006120e100cfff32000801be000200be0025
:1012e000f7ff37006150e100fcff3a00c9ff37000b
:1012f000881f7800030478000300e00007003d0029
:1013000060001000e080180060011900e081190001
:1013100002003b0001f02d0003003700040007002d
:1013200008f0a70001f0a0004f04780000000600bc
:10133000889fbe008a9fbe00008270000402710078
:1013400004827100260032000004be000200be00cc
:101350006011b8006b092000950220000182cf00c7
:101360000a0039000541b1000082cf0007003900b2
:101370000541b1000982cf00040039000541b100e8
:101380000882cf00010039000541b100054252003a
:10139000120032000a003b0082817100610164008a
:1013a0008100d1000080d3008984d3000884d30059
:1013b0008b05e8000442e800f7ff3a000700370019
:1013c0000804440089844c000000480081804800e3
:1013d0008b05e9000442e900f9ff3a003dff0700f0
:0c13e0004f05be004f04be0000000600d8
:020000040000fa
:1013ec003134000034370000393800003736000043
:1013fc0000000000000000000000000000000000e1
:10140c0000000000000000000000000000000000d0
:10141c0000000000000000000000000000000000c0
:10142c0000000000000000000000000000000000b0
:10170c000000000000000000fe1200001212000099
:10171c0000000000fe3000004886000000000000c1
:10172c00fe220000226200009c00000000e000008d
:10173c005c4600005ce0000000000000fe060000bb
:10174c0018600000c0fe0000000000000000000057
:10175c0000000000fe00000000fe0000121200005d
:10176c00120000000000000000000000c222000077
:10177c001a06000000000000e05c0000465c00005f
:10178c00e000000000fe0000304800008600000071
:10179c0000fe0000000000000000000000fe000041
:1017ac0000000000fe8000000000000000fe0000b1
:1017bc0000000000cc020000020200000400000047
:1017cc00e05c0000465c0000e000000000fe000051
:1017dc000618000060c00000fe00000000000000c1
:1017ec0000000000000000000000000000000000ed
:1017fc0000000000000000000000000000000000dd
:10180c0000000000000000000101000001010000c8
:10181c0000000000010000000000000001000000ba
:10182c0001000000000000000100000001000000a9
:10183c00000000000000000001000000010000009a
:10184c00000000000001000000000000000000008b
:10185c000101000000000000000100000101000077
:10186c000100000000000000000100000101000068
:10187c000101000000010000000000000000000059
:10188c000001000000010000000000000001000049
:10189c000001000001010000010100000100000036
:1018ac000000000000010000010100000100000028
:1018bc000000000000010000010100000001000018
:1018cc00000000000000000000010000000100000a
:1018dc0000000000000000000100000000000000fb
:1018ec0000000000000000000000000000000000ec
:1018fc0000000000000000000000000000000000dc
:10190c0000000000000000000000000000000000cb
:10191c0000000000000000000000000000000000bb
:101cfc0000800000c0400000000000000000000058
:101d0c0000000000000000000000000000000000c7
:101d1c0000000000000000000000000000000000b7
:101d2c0000000000000000000000000000000000a7
:101d3c00000000000000000000400000c080000017
:101d4c0000000000000000000080000040000000c7
:101d5c000000000000000000000000000000000077
:101d6c000000000000000000000000000000000067
:101d7c000000000000000000000000000000000057
:101d8c000000000000000000000000000000000047
:101d9c000040000080000000000000000000000077
:101dac0080c00000400000000000000000000000a7
:101dbc000000000000000000000000000000000017
:101dcc000000000000000000000000000000000007
:101ddc0000000000000000000000000000000000f7
:101dec00000000000000000040c000008000000067
:101dfc00007f0000ff000000000000000000000059
:101e0c0000000000000000000000000000000000c6
:101e1c000004000004040000021e00001e1e00004e
:101e2c0000000000000000000000000000000000a6
:101e3c00000000000000000000000000ffff000098
:101e4c00000000000000000000ff00008000000007
:101e5c000000000000000000000000000000000076
:101e6c00000000000020000032320000123a000096
:101e7c002a2a00002e26000024000000000000008a
:101e8c000000000000000000000000000000000046
:101e9c0000000000ff000000000000000000000037
:101eac00ffff000000000000000000000000000028
:101ebc000000000000000000000000000012000004
:101ecc001222000022200000263e00001e1a0000f4
:101edc0010000000000000000000000000000000e6
:101eec00000000000000000000ff0000ff000000e8
:101efc0000f00000f80900000101000000000000e3
:101f0c0000000000000000000000000000000000c5
:101f1c000000000080800000c0c00000c0c00000b5
:101f2c0000000000000000000000000000000000a5
:101f3c00000000000000000001090000f8f00000a3
:101f4c00000000000000000000f00000080100008c
:101f5c000100000000000000000000000000000074
:101f6c00000000000000000080c00000c040000025
:101f7c004040000040400000000000000000000055
:101f8c000000000000000000000000000001000044
:101f9c0001080000f000000000000000000000003c
:101fac00f0f8000009010000010000000000000032
:101fbc000000000000000000000000000080000095
:101fcc0080c00000c04000004040000040400000c5
:101fdc0040000000000000000000000000000000b5
:101fec00000000000001000009f80000f0000000f3
:101ffc00001f00001f200000200000000000000057
:10200c0000000000000000000000000000020000c2
:10201c000303000003020000020300000707000096
:10202c0002020000000000000000000000000000a0
:10203c000000000000000000202000001f1f000016
:10204c000000000000000000001f00000020000045
:10205c002000000000000000000000000000000054
:10206c000000000000020000020200000404000056
:10207c000404000003030000030000000000000043
:10208c000000000000000000000000000020000024
:10209c00200000001f0000000000000000000000f5
:1020ac001f1f0000202000000000000000000000a6
:1020bc000000000000000000000000000003000011
:1020cc0003070000070500000404000005070000da
:1020dc0007030000000000000000000000000000ea
:1020ec000000000000200000201f00001f00000066
:1020fc0000fe0000ff0100000000000000000000d6
:10210c0000000000000000000000000000000000c3
:10211c000808000048680000683800001808000033
:10212c00080000000000000000000000000000009b
:10213c00000000000000000000010000fffe000095
:10214c00000000000000000000ff00000100000083
:10215c000000000000000000000000000000000073
:10216c0000000000006000007878000098800000fb
:10217c0080980000787800006000000000000000eb
:10218c000000000000000000000000000000000043
:10219c0000010000ff000000000000000000000033
:1021ac00feff000001000000000000000000000025
:1021bc0000000000000000000000000010580000ab
:1021cc0078680000a8a8000028780000787000004b
:1021dc0030000000000000000000000000000000c3
:1021ec00000000000000000001ff0000fe000000e5
:1021fc0000c10000e3200000040400000000000007
:10220c0000000000000000000000000000000000c2
:10221c0000000000000000000000000000000000b2
:10222c0000000000000000000000000000000000a2
:10223c00000000000004000004200000e3c10000c6
:10224c00000000000000000000c300002204000099
:10225c00040000000000000000000000000000006e
:10226c000000000000000000000000000000000062
:10227c000000000000000000000000000000000052
:10228c00000000000000000000000000000400003e
:10229c0004220000c3000000000000000000000049
:1022ac00c1e3000020040000040000000000000056
:1022bc000000000000000000000000000000000012
:1022cc000000000000000000000000000000000002
:1022dc0000000000000000000000000000000000f2
:1022ec00000000000404000020e30000c100000016
:1022fc00003f00007f000000800000000000000094
:10230c00000000000000000000010000190900009e
:10231c000b0e00000e06000004060000060e000066
:10232c000b09000019010000000000000000000073
:10233c000000000000000000800000007f7f000013
:10234c000000000000000000007f00000080000082
:10235c000000000000000000000000000000000071
:10236c0000000000000e00000f0f0000191100000b
:10237c00111100000f0f00000e0000000000000003
:10238c000000000000000000000000000000000041
:10239c00800000007f000000000000000000000032
:1023ac007f7f0000008000000000000000000000a3
:1023bc0000000000000000000808000008080000f1
:1023cc0018180000180c00000c0600000603000092
:1023dc0003010000010000000000000000000000ec
:1023ec000000000000800000007f00007f00000063
:1023fc0000000000000000000000000000000000d1
:10240c0000000000000000000000000000000000c0
:10241c0000000000000000000000000000000000b0
:10242c0000000000000000000000000000000000a0
:10260c00000000000000000000000000007f00003f
:10261c00c080000080c000007f00000000000000af
:10262c0000000000ff110000111100000e0000005e
:10263c00007e0000c281000081810000437e00000a
:10264c0000800000e1b100008987000081000000db
:10265c0000000000000100000e700000c0700000bf
:10266c000e010000007f0000c080000080c0000050
:10267c007f00000000000000000000008f890000b7
:10268c0091f00000000100000101000001010000b8
:10269c0001000000ff890000898900008100000012
:1026ac0000000000008f000089910000f000000085
:1026bc00806000002c23000027380000c0000000c0
:1026cc0000000000000000000000000000000000fe
:1026dc0000000000000000000000000000000000ee
:1026ec0000000000000000000000000000000000de
:1026fc0000000000000000000000000000000000ce
:10270c00000000000000000000000000008000003d
:10271c00808000008000000000000000000000002d
:10272c00808000000000000000000000808000009d
:10273c00808000000000000080000000000000000d
:10274c0000800000000000008080000000000000fd
:10275c0000800000000000000000000080800000ed
:10276c00000000000080000080800000800000005d
:10277c00000000000000000080800000808000004d
:10278c00000000000080000080000000000000003d
:10279c00000000008080000000000000000000002d
:1027ac00000000000000000000000000000000001d
:1027bc00000000000000000000000000000000000d
:1027cc0000000000000000000000000000000000fd
:1027dc0000000000000000000000000000000000ed
:1027ec0000000000000000000000000000000000dd
:1027fc0000000000000000000000000000000000cd
:10280c00000000000000000000000000007f00003d
:10281c000808000018670000004000003016000097
:10282c00111300001c600000003f0000614000001c
:10283c0040400000200000003f60000040400000cd
:10284c00603f0000000000007f010000061800003f
:10285c00707f0000004000003016000011130000d3
:10286c001c600000007f00000808000018670000d2
:10287c00000000003f6100004040000040210000cb
:10288c003f000000007f00000106000038600000df
:10289c0018060000017f000000000000000000008e
:1028ac00000000000000000000000000000000001c
:1028bc00000000000000000000000000000000000c
:1028cc0000000000000000000000000000000000fc
:1028dc0000000000000000000000000000000000ec
:102c0c000020000020200000e020000000c0000098
:102c1c00402000002020000060c0000000200000c8
:102c2c00c000000000000000c020000000e0000018
:102c3c0020200000202000000000000000200000e8
:102c4c00c000000000000000c020000000000000d8
:102c5c0080600000e000000000000000e0200000a8
:102c6c0020000000000000000000000000e0000058
:102c7c002020000020c000000000000000800000a8
:102c8c0060e000000000000000c0000060200000b8
:102c9c002020000000000000e00000000000000008
:102cac0000e0000000000000e06000008000000078
:102cbc0000e00000000000000080000060e0000068
:102ccc000000000000e000002020000020c00000f8
:102cdc0000000000000000000000000000000000e8
:102cec0000000000000000000000000000000000d8
:102cfc0000000000000000000000000000000000c8
:102d0c00101c00001611000010100000000f000035
:102d1c001810000010100000080f00000000000048
:102d2c00010e0000180e000001000000001f000042
:102d3c001111000011100000000000000000000044
:102d4c00010e0000180e000001000000100c000025
:102d5c000504000004070000180000001111000019
:102d6c00121e00000000000000000000009f000088
:102d7c00c2c20000c6990000001000000c05000043
:102d8c000404000007180000000f000018100000d9
:102d9c0010100000080000000f18000010100000b8
:102dac00180f0000000000001f00000001060000ca
:102dbc001c1f0000001000000c05000004040000a3
:102dcc0007180000001f0000020200000619000096
:102ddc0000000000000000000000000000000000e7
:102dec0000000000000000000000000000000000d7
:102dfc0000000000000000000000000000000000c7
:102e0c0000000000000000000000000000000000b6
:102e1c0000000000000000000000000000000000a6
:102e2c000000000000000000000000000000000096
:102e3c000000000000000000000000000000000086
:102e4c000000000000000000000000000000000076
:102e5c000000000000000000000000000000000066
:102e6c0000000000000000000000000000ff000057
:102e7c00ffff0000ffff000000000000000000004a
:102e8c000000000000000000000000000000000036
:102e9c000000000000000000000000000000000026
:102eac000000000000000000000000000000000016
:102ebc000000000000000000000000000000000006
:102ecc0000000000000000000000000000000000f6
:102edc0000000000000000000000000000000000e6
:102eec0000000000000000000000000000000000d6
:102efc0000000000000000000000000000000000c6
:102f0c0000000000000000000000000000000000b5
:102f1c0000000000000000000000000000000000a5
:102f2c000000000000000000000000000000000095
:102f3c000000000000000000000000000000000085
:102f4c000000000000000000000000000000000075
:102f5c000000000000000000000000000000000065
:102f6c0000000000000000000000000000ff000056
:102f7c00ffff0000ffff0000000000000000000049
:102f8c000000000000000000000000000000000035
:102f9c000000000000000000000000000000000025
:102fac000000000000000000000000000000000015
:102fbc000000000000000000000000000000000005
:102fcc0000000000000000000000000000000000f5
:102fdc0000000000000000000000000000000000e5
:102fec0000000000000000000000000000000000d5
:102ffc000000000000000000fe2200002222000061
:10300c001c00000000fe000022220000629c000058
:10301c00000000000000000000000000fe10000096
:10302c001010000010fe0000000200001ce0000068
:10303c0080e000001c02000000c0000058460000a8
:10304c004e7000008002000002020000020200002c
:10305c000200000000000000000000000000000062
:10306c0000000000000000000000000000ff000055
:10307c00ffff0000ffff0000000000000000000048
:10308c000000000000000000000000000000000034
:10309c007ec2000081810000814300007e000000a0
:1030ac0000ff00008181000081c300007e00000051
:1030bc0000ff0000898900008976000000000000f4
:1030cc000000000000800000807f00000000000075
:1030dc0000000000000000000000000000000000e4
:1030ec0000000000000000000000000000000000d4
:1030fc0000000000000000000100000000000000c3
:10310c0000000000000100000000000000010000b1
:10311c0000000000000000000000000001000000a2
:10312c000000000000010000000000000000000092
:10313c000100000000000000010000000000000081
:10314c000000000001000000000000000000000072
:10315c000000000000000000000000000000000063
:10316c0000000000000000000000000000ff000054
:10317c00ffff0000ffff0000000000000000000047
:10318c000000000000000000000000000000000033
:10319c000000000000000000000000000000000023
:1031ac000000000000000000000000000000000013
:1031bc000000000000000000000000000000000003
:1031cc0000000000000000000000000000000000f3
:1031dc0000000000000000000000000000000000e3
:1031ec0000000000000000000000000000000000d3
:1031fc0000000000000000000000000000000000c3
:10320c0000000000000000000000000000000000b2
:10321c0000000000000000000000000000000000a2
:10322c000000000000000000000000000000000092
:10323c000000000000000000000000000000000082
:10324c000000000000000000000000000000000072
:10325c000000000000000000000000000000000062
:10326c0000000000000000000000000000ff000053
:10327c00ffff0000ffff0000000000000000000046
:10328c000000000000000000000000000000000032
:10329c000000000000000000000000000000000022
:1032ac000000000000000000000000000000000012
:1032bc000000000000000000000000000000000002
:1032cc0000000000000000000000000000000000f2
:1032dc0000000000000000000000000000000000e2
:1032ec0000000000000000000000000000000000d2
:1032fc0000000000000000000000000000000000c2
:10330c0000000000000000000000000000000000b1
:10331c0000000000000000000000000000000000a1
:10332c000000000000000000000000000000000091
:10333c000000000000000000000000000000000081
:10334c000000000000000000000000000000000071
:10335c000000000000000000000000000000000061
:10336c0000000000000000000000000000ff000052
:10337c00ffff0000ffff0000000000000000000045
:10338c000000000000000000000000000000000031
:10339c000000000000000000000000000000000021
:1033ac000000000000000000000000000000000011
:1033bc000000000000000000000000000000000001
:1033cc0000000000000000000000000000000000f1
:1033dc0000000000000000000000000000000000e1
:1033ec0000000000000000000000000000000000d1
:1033fc0000000000000000000000000000000000c1
:10340c0000000000000000000000000000000000b0
:10341c0000000000000000000000000000000000a0
:10342c000000000000000000000000000000000090
:10343c000000000000000000000000000000000080
:10344c000000000000000000000000000000000070
:10345c000000000000000000000000000000000060
:10346c000000000000000000000000000000000050
:10347c000000000000000000000000000000000040
:10348c000000000000000000000000000000000030
:10349c000000000000000000000000000000000020
:1034ac000000000000000000000000000000000010
:1034bc000000000000000000000000000000000000
:1034cc0000000000000000000000000000000000f0
:1034dc0000000000000000000000000000000000e0
:1034ec0000000000000000000000000000000000d0
:1034fc0000000000000000000000000000000000c0
:10350c000000000000f000001010000010e00000af
:10351c0000000000f010000010100000e00000009f
:10352c00000000000000000000f00000808000009f
:10353c0080800000f000000010e00000000000009f
:10354c0000e000001000000000c00000307000001f
:10355c008000000000e0000030100000101000009f
:10356c0000000000f090000090900000100000009f
:10357c00f0300000c000000000f00000000000006f
:10358c000000000000f000001010000010e000002f
:10359c0000000000e02000001010000010300000bf
:1035ac00e0000000001000001090000070100000ff
:1035bc00000000000000000010e00000000000000f
:1035cc0000e000001000000000f800000000000007
:1035dc0000000000000000000000000000000000df
:1035ec0000000000000000000000000000000000cf
:1035fc0000000000000000000000000000000000bf
:10360c0000000000000f000001010000010000009c
:10361c00000000000f010000010300000c0000007e
:10362c000000000000000000000f0000000000007f
:10363c00000000000f00000000000000070c00005c
:10364c000700000000080000060200000202000053
:10365c00030c0000000700000c0800000808000024
:10366c00040000000f08000008080000080000001b
:10367c000f000000000300000e0f0000000000000f
:10368c0000000000000f000001010000010000001c
:10369c0000000000070c00000808000008040000ef
:1036ac0007000000080e00000b08000008080000ce
:1036bc00000000000000000000000000070c0000eb
:1036cc000700000000000000000b000000000000dc
:1036dc0000000000000000000000000000000000de
:1036ec0000000000000000000000000000000000ce
:1036fc0000000000000000000000000000000000be
:10370c0000000000000000000000000000000000ad
:10371c00000000000000000000e00000202000007d
:10372c0020c000000000000000c0000060c00000cd
:10373c00000000000020000020a00000600000003d
:10374c0000c00000402000002020000040000000cd
:10375c0000c000002020000020200000c00000005d
:10376c0020c000000000000000c00000200000008d
:10377c0000c0000060c000000000000000e000007d
:10378c002020000020c000000000000000c000004d
:10379c0060c000000000000020200000202000007d
:1037ac002020000000e0000020200000200000008d
:1037bc000000000000000000e020000020000000dd
:1037cc000000000000c0000060c00000000000000d
:1037dc0000000000000000000000000000000000dd
:1037ec0000000000000000000000000000000000cd
:1037fc0000000000000000000000000000000000bd
:10380c0000000000000000000000000000000000ac
:10381c000000000000000000001f00000202000079
:10382c0006190000001000000e0500000405000041
:10383c000e100000101c00001211000010000000ff
:10384c00000f000018100000121200001e000000f3
:10385c00000f000010100000101000000f000000fe
:10386c00000100000e1800000e0100000010000006
:10387c000e050000040500000e100000001f0000e3
:10388c000202000006190000001000000e050000e6
:10389c00040500000e1000000000000000000000f5
:1038ac0000000000001f00001111000011000000ba
:1038bc00000000000000000011110000121a0000ae
:1038cc00001000000e050000040500000e100000a2
:1038dc0000000000000000000000000000000000dc
:1038ec0000000000000000000000000000000000cc
:1038fc0000000000000000000000000000000000bc
:10390c0000000000000000000000000000000000ab
:10391c00000000000000000000f00000101000008b
:10392c0010e000000000000000e0000030e00000ab
:10393c0000000000006000001010000010200000cb
:10394c0000f000000000000000000000f00000008b
:10395c0000f0000030c0000000000000f00000008b
:10396c0000000000e0300000e0000000000000005b
:10397c00f010000010100000e000000000e000005b
:10398c001010000010100000e000000000f000001b
:10399c00708000000000000080300000f00000008b
:1039ac00000000000000000000000000000000000b
:1039bc0000000000000000000000000000000000fb
:1039cc0000000000000000000000000000000000eb
:1039dc0000000000000000000000000000000000db
:1039ec0000000000000000000000000000000000cb
:1039fc0000000000000000000000000000000000bb
:103a0c0000000000000000000000000000000000aa
:103a1c000000000000000000000f00000101000089
:103a2c00030c000000080000070200000202000066
:103a3c00070800000006000008080000080000004d
:103a4c00000700000c080000080800000700000038
:103a5c00000f000000000000030600000f00000033
:103a6c000807000002020000020700000800000026
:103a7c000f010000010300000c0000000007000013
:103a8c00080800000808000007000000000f0000f4
:103a9c00000100000e060000010000000f000000f5
:103aac0000080000000000000800000000080000f2
:103abc0000000000000000000000000000000000fa
:103acc0000000000000000000000000000000000ea
:103adc0000000000000000000000000000000000da
:103aec0000000000000000000000000000000000ca
:103d0c00000000000000000000000000ff11000097
:103d1c00111100000e000000007e0000c2810000a6
:103d2c0081810000437e000000800000e1b10000b2
:103d3c0089870000810000000000000000010000e5
:103d4c000e700000c07000000e01000000000000aa
:103d5c0000000000ff11000011310000ce00000037
:103d6c00806000002c23000027380000c0000000f9
:103d7c007ec300008181000081400000007f0000b4
:103d8c00c080000080c000007f00000000ff000029
:103d9c00030c000030e00000ff0000008060000019
:103dac002c23000027380000c0000000ff11000089
:103dbc0011310000ce000000806000002c230000b8
:103dcc0027380000c00000000000000000000000c8
:103ddc0000000000000000000000000000000000d7
:103dec0000000000000000000000000000000000c7
:103dfc0000000000000000000000000000000000b7
:103e0c0000000000000000000000000000000000a6
:103e1c008080000080800000000000000080000016
:103e2c008080000080800000000000000080000006
:103e3c0080800000800000000000000000000000f6
:103e4c0000000000008000000000000080800000e6
:103e5c0080800000800000008080000000000000d6
:103e6c00008000000000000000c000000000000006
:103e7c000000000000000000000000000000000036
:103e8c000000000000000000000000000000000026
:103e9c000000000000000000000000000000000016
:103eac000000000000000000000000000000000006
:103ebc0000000000000000000000000000000000f6
:103ecc0000000000000000000000000000000000e6
:103edc0000000000000000000000000000000000d6
:103eec0000000000000000000000000000000000c6
:103efc0000000000000000000000000000000000b6
:103f0c000000000000000000000000003f61000005
:103f1c0040400000402100003f000000007f0000f6
:103f2c0040400000406100003f000000007f0000a6
:103f3c0044440000443b000000000000000000006e
:103f4c0000400000403f0000000000007f440000e3
:103f5c0044440000400000007f01000006180000ef
:103f6c00707f000000000000005f000000000000f7
:103f7c000000000000000000000000000000000035
:103f8c000000000000000000000000000000000025
:103f9c000000000000000000000000000000000015
:103fac000000000000000000000000000000000005
:103fbc0000000000000000000000000000000000f5
:103fcc0000000000000000000000000000000000e5
:103fdc0000000000000000000000000000000000d5
:103fec0000000000000000000000000000000000c5
:103ffc0000000000000000000000000000000000b5
:10400c0000000000000000000000000000000000a4
:10401c000000000000000000000000000000000094
:10402c000000000000000000000000000000000084
:10403c000000000000000000000000000000000074
:10404c000000000000000000000000000000000064
:10405c000000000000000000000000000000000054
:10406c000000000000000000000000000000000044
:10407c000000000000000000000000000000000034
:10408c000000000000000000000000000000000024
:10409c000000000000000000000000000000000014
:1040ac000000000000000000000000000000000004
:1040bc0000000000000000000000000000000000f4
:1040cc0000000000000000000000000000000000e4
:1040dc0000000000000000000000000000000000d4
:1040ec0000000000000000000000000000000000c4
:1040fc0000000000000000000000000000000000b4
:10410c0000000000000000000000000000000000a3
:10411c000000000000000000000000008000000013
:10412c000000000000000000000000000000000083
:10413c000000000000000000000000000000000073
:10414c000000000000000000000000000000000063
:10415c008000000000800000000000000000000053
:10416c000000000000000000000000000000000043
:10417c0080000000000000000000000000000000b3
:10418c000000000000000000000000000000000023
:10419c000000000000000000000000000000000013
:1041ac000080000000000000000000000000000083
:1041bc0000000000000000000000000000000000f3
:1041cc000000000000000000008000008080000063
:1041dc0000000000000000000000000000000000d3
:1041ec0000000000000000000000000000000000c3
:1041fc0000000000000000000000000000000000b3
:10420c0000000000000000000000000000000000a2
:10421c000000000000000000202000001f00000033
:10422c00003c00002a2a00002e00000000220000a2
:10423c002a2a0000000200003f22000000000000bb
:10424c003c2a00002a2e00000000000000000000a4
:10425c003f00000080fe0000000000003e20000037
:10426c00203e0000000200003f2200000000000081
:10427c003e00000000000000003e000002020000b2
:10428c003e000000002a00002a2a00003e00000028
:10429c0000000000003e0000020200003e00000092
:1042ac0080fe0000000000003c2a00002a2e0000c6
:1042bc0000400000aaaa0000aa420000002a000048
:1042cc002a2a00003e000000000000002c04000020
:1042dc0000000000000000000000000000000000d2
:1042ec0000000000000000000000000000000000c2
:1042fc0000000000000000000000000000000000b2
:10430c0000000000000000000000000000000000a1
:10450c00000000000000000000f80000f8f80000b7
:10451c00383800003838000078f00000f0e0000077
:10452c000000000000f80000f8f800000000000097
:10453c000000000000000000f8f80000f800000087
:10454c00000000000000000000000000e0f8000087
:10455c0078780000f8f000008000000000000000f7
:10456c000000000000f80000f8f80000f8f8000067
:10457c00e08000000000000000000000f8f80000df
:10458c00f800000000000000000000000000000027
:10459c0000000000c0e00000f0f800003838000017
:1045ac0038380000787000000000000000000000a7
:1045bc00f8f80000f8000000000000000000000007
:1045cc00fcfc0000fcf800000000000000000000f3
:1045dc0000000000000000000000000000000000cf
:1045ec0000000000000000000000000000000000bf
:1045fc0000000000000000000000000000000000af
:10460c00000000000000000000ff0000ffff0000a1
:10461c0038380000383800003c1f00000f0700003d
:10462c000000000000ff0000ffff00000000000081
:10463c000000000000000000ffff0000ff00000071
:10464c000000000000e00000f8ff0000ffe30000a5
:10465c00e0e00000e3ff0000fffe0000f08000003f
:10466c000000000000ff0000ffff00000001000040
:10467c00071f00007ef80000e0000000ffff0000b4
:10468c00ff0000000000000000000000000000001f
:10469c0000000000010700000f0f00001e1e0000ac
:1046ac003c3c0000f8f80000e000000000000000b6
:1046bc00ffff0000ff0000000000000000000000f1
:1046cc00017f00007f0000000000000000000000df
:1046dc0000000000000000000000000000000000ce
:1046ec0000000000000000000000000000000000be
:1046fc0000000000000000000000000000000000ae
:10470c000000000000000000000f00000f0f000070
:10471c00000000000000000000000000000000008d
:10472c0000000000000f00000f0f00000000000050
:10473c00070e00000e0f00000f0700000300000022
:10474c00000800000f0f00000f0100000000000027
:10475c000000000000000000000700000f0f000028
:10476c000c000000000f00000f0f00000000000004
:10477c000000000000010000070f00000f0f0000f8
:10478c000f0000000000000000000000000000000e
:10479c0000000000070f00000e0e00000e0e0000bf
:1047ac000e0f0000070300000100000000000000d5
:1047bc000f0f00000f0000000000000000000000c0
:1047cc00060f00000f0600000000000000000000b3
:1047dc0000000000000000000000000000000000cd
:1047ec0000000000000000000000000000000000bd
:1047fc0000000000000000000000000000000000ad
:10480c00000000000000000000000000000000009c
:10481c00000000000000000000000000000000008c
:10482c00000000000000000000000000000000007c
:10483c00000000000000000000000000000000006c
:10484c00000000000000000000000000000000005c
:10485c00000000000000000000000000000000004c
:10486c00000000000000000000000000000000003c
:10487c00000000000000000000000000000000002c
:10488c00000000000000000000000000000000001c
:10489c00000000000000000000000000000000000c
:1048ac0000000000000000000000000000000000fc
:1048bc0000000000000000000000000000000000ec
:1048cc0000000000000000000000000000000000dc
:1048dc0000000000000000000000000000000000cc
:1048ec0000000000000000000000000000000000bc
:1048fc00000000000000000000000000fe1200009c
:10490c00121e0000ec00000000fe0000fe00000083
:10491c000000000000fc0000860200000202000003
:10492c0086fc000000000000fe30000038ec0000a7
:10493c008602000000fe000000000000fe120000d5
:10494c0012720000ee00000000e000007c46000047
:10495c004e780000c000000000fe00000e1c00009d
:10496c0030e00000c0fe000000000000000000006d
:10497c0002020000fefe00000202000000fe000029
:10498c00121200001202000000fe0000fe000000e7
:10499c000000000000fe00001212000012020000d5
:1049ac0000fe0000222200002200000000fc00009b
:1049bc00860200000202000086fc000000000000dd
:1049cc00fe0e00001c300000e0c00000fe000000e5
:1049dc0000830000bf000000000000000000000089
:1049ec0000000000000000000000000000000000bb
:1049fc0000000000000000000000000001010000a9
:104a0c000101000000000000000100000101000095
:104a1c000100000000000000010100000101000085
:104a2c000100000000000000010000000000000078
:104a3c000101000000010000000000000100000066
:104a4c000000000001010000010100000000000056
:104a5c000000000001010000000100000000000047
:104a6c000000000001010000000000000000000038
:104a7c000000000001010000000000000001000027
:104a8c000101000001010000000100000101000013
:104a9c000100000000010000010100000101000004
:104aac0000010000000000000000000000000000f9
:104abc0001010000010100000100000000000000e5
:104acc0001000000000000000001000001000000d7
:104adc0000010000010000000000000000000000c8
:104aec0000000000000000000000000000000000ba
:104afc0000000000000000000000000000000000aa
:104b0c000000000000000000000000000000000099
:104b1c000000000000000000000000000000000089
:104b2c000000000000000000000000000000000079
:104b3c000000000000000000000000000000000069
:104b4c000000000000000000000000000000000059
:104b5c000000000000000000000000000000000049
:104b6c000000000000000000000000000000000039
:104b7c000000000000000000000000000000000029
:104b8c000000000000000000000000000000000019
:104b9c000000000000000000000000000000000009
:104bac0000000000000000000000000000000000f9
:104bbc0000000000000000000000000000000000e9
:104bcc0000000000000000000000000000000000d9
:104bdc0000000000000000000000000000000000c9
:104bec0000000000000000000000000000000000b9
:104bfc00494e0000495400000a0000004b4f0000d1
:104c0c0052490000534e0000494b0000204a00005e
:104c1c0045200000504900004a4100004e21000090
:104c2c000a0000004b4f000052490000534e000098
:104c3c00494b000020530000452000004f54000059
:104c4c00524900004a4500005a4e0000494f0000ee
:104c5c00210a0000005000004f5a0000564100008d
:104c6c004e2000004d4900004b5200004f4b0000fd
:104c7c004f4e0000545200004f4c000045520000b3
:104c8c000a000000544500004c450000464f00004f
:104c9c004e2000004f5400004b4c00004a550000c1
:104cac00434100004e200000504f00004b520000ca
:104cbc00455400004f4d00000a0000005445000010
:104ccc004c450000464f00004e2000004f540000a1
:104cdc004b4c00004a550000434100004e200000a0
:104cec00444f000044490000524f00004d0a0000a0
:104cfc00004d0000494b0000524f00004b4f00008c
:104d0c004e540000524f00004c4500005220000051
:104d1c0056410000532000004a450000204e000080
:104d2c00415a0000564100004f0a0000002e0000be
:104d3c002e2e00000a000000504f00005a490000bf
:104d4c00562000005a410000565200005345000006
:104d5c004e0a0000005000004f5a00004956000057
:104d6c00205000005249000048560000414300000a
:104d7c00454e00000a000000504f00005a49000048
:104d8c00562000004f440000424900004a450000f4
:104d9c004e2100000a0000004e4500005441000066
:104dac00434100004e200000425200004f4a0000d8
:104dbc0000000000000000000000000000000000e7
:104dcc0000000000000000000000000000000000d7
:104ddc0000000000000000003eff0000ff3e00004d
:104dec000000000000000000000d00000d0000009d
:104dfc000000000000040000070300000004000095
:104e0c00070300000000000000000000000000008c
:104e1c000000000010fe0000fe10000010fe00005c
:104e2c00fe100000010f00000f010000010f000038
:104e3c000f0100001c3e000022ff0000ff4200009a
:104e4c00ce8c000003070000040f00000f040000cc
:104e5c00070300000000000006c60000f03c000044
:104e6c000e02000000040000070300000006000012
:104e7c00060000001e3f0000e1c1000041210000bf
:104e8c003f1e0000060f0000090900000b0c00007b
:104e9c001e160000000000000407000003000000c4
:104eac0000000000000000000000000000000000f6
:104ebc000000000000000000f8fe000007010000e8
:104ecc000000000000000000000700000e080000b9
:104edc00000000000000000001070000fef80000c8
:104eec000000000000000000080e00000701000098
:104efc000000000020a80000f870000070f800000e
:104f0c00a8200000000000000000000000000000cd
:104f1c00000000002020000020fc0000fc2000000d
:104f2c002020000000000000000100000100000033
:104f3c000000000000000000000000000000000065
:104f4c000000000000000000203c00001c000000dd
:104f5c000000000020200000202000002020000085
:104f6c0020200000000000000000000000000000f5
:104f7c000000000000000000000000000000000025
:104f8c000000000000000000000c00000c000000fd
:104f9c00000000000000000000c00000f03c000019
:104fac000f030000000c00000f03000000000000c5
:104fbc0000000000feff00000101000001010000e4
:104fcc00fffe0000070f00000808000008080000a2
:104fdc000f0700000004000006ff0000ff000000a7
:104fec000000000000080000080f00000f0800007f
:104ffc00080000000203000081c1000061310000c4
:10500c001f0e00000e0f0000090800000808000029
:10501c00080c000002030000012100002121000007
:10502c00ffde0000040c0000080800000808000067
:10503c000f070000e0f00000988c000086ff0000d5
:10504c00ff0000000000000000000000080f00003e
:10505c000f0800003f3f000021210000212100002b
:10506c00e1c10000040c0000080800000808000062
:10507c000f070000fcfe000023210000212100008e
:10508c00e0c00000070f000008080000080800003e
:10509c000f0700000303000001810000e17900000c
:1050ac001f07000000000000000f00000f000000b0
:1050bc0000000000deff0000212100002121000083
:1050cc00ffde0000070f00000808000008080000c1
:1050dc000f0700001e3f00002121000021210000cd
:1050ec00fffe00000008000008080000080c00008b
:1050fc00070300000000000000180000180000006a
:10510c000000000000000000000600000600000087
:10511c000000000000000000001800001800000053
:10512c000000000000000000101e00000e00000037
:10513c000000000040e00000b01800000c06000069
:10514c00020000000000000001030000060c00003b
:10515c000800000000a00000a0a00000a0a000001b
:10516c00a000000000000000000000000000000093
:10517c000000000000020000060c000018b0000047
:10518c00e0400000000800000c06000003010000d5
:10519c00000000000203000001c10000e13100002a
:1051ac001f0e000000000000000d00000d000000ac
:1051bc00000000000203000001c10000e13100000a
:1051cc001f0e000000000000000d00000d0000008c
:1051dc0000000000f8fc00008683000083860000bd
:1051ec00fcf800000f0f00000000000000000000a1
:1051fc000f0f0000ffff0000212100002121000003
:10520c00ffde00000f0f0000080800000808000077
:10521c000f070000fcfe000003010000010100006c
:10522c0003060000030700000c080000080800003b
:10523c000c06000001ff0000ff010000010300004c
:10524c00fefc0000080f00000f080000080c000016
:10525c000703000001ff0000ff2100002171000086
:10526c0003030000080f00000f08000008080000ee
:10527c000c0c000001ff0000ff2100002171000058
:10528c0003030000080f00000f08000000000000de
:10529c0000000000fcfe0000030100004141000082
:1052ac00c3c60000030700000c080000080800003b
:1052bc00070f0000ffff000020200000202000004e
:1052cc00ffff00000f0f00000000000000000000b6
:1052dc000f0f00000001000001ff0000ff010000a3
:1052ec000100000000080000080f00000f0800007b
:1052fc0008000000000000000000000001ff00009a
:10530c00ff010000060e000008080000080f000056
:10531c000700000001ff0000ff700000d88c0000a7
:10532c0007030000080f00000f0000000001000040
:10533c000f0e000001ff0000ff0100000000000044
:10534c0000000000080f00000f0800000808000013
:10535c000c0c0000ffff00000c780000780c000023
:10536c00ffff00000f0f0000000000000000000015
:10537c000f0f0000ffff00001c38000070e0000061
:10538c00ffff00000f0f00000000000000000000f5
:10539c000f0f0000feff00000101000001010000e2
:1053ac00fffe0000070f00000808000008080000be
:1053bc000f07000001ff0000ff2100002121000069
:1053cc003f1e0000080f00000f0800000000000046
:1053dc0000000000feff00000101000001010000c0
:1053ec00fffe0000070f0000080e00001c38000034
:1053fc002f07000001ff0000ff21000021610000c9
:10540c00ff9e0000080f00000f08000000000000c5
:10541c000f0f00000e1f0000312100002161000061
:10542c00c7860000060e00000808000008080000ef
:10543c000f0700000303000001ff0000ff01000044
:10544c000303000000000000080f00000f0800001c
:10545c0000000000ffff0000000000000000000042
:10546c00ffff0000070f00000808000008080000fc
:10547c000f070000ffff000000000000000000000c
:10548c00ffff000001030000060c00000c060000ea
:10549c0003010000ffff000000e00000e00000003e
:1054ac00ffff0000010f00000e030000030e0000c0
:1054bc000f010000070f000098f00000f0980000aa
:1054cc000f0700000e0f000001000000000100009b
:1054dc000f0e00000f1f000030e00000e030000055
:1054ec001f0f000000000000080f00000f08000054
:1054fc000000000003830000c161000031190000ae
:10550c000f0700000f0f000008080000080800003b
:10551c000c0c000000000000ffff00000101000067
:10552c0000000000000000000f0f00000808000041
:10553c000000000055aa000055aa000055aa000062
:10554c0055aa000055aa000055aa000055aa000053
:10555c0055aa00000000000001010000ffff000040
:10556c000000000000000000080800000f0f000001
:10557c0000000000080c00000603000003060000f9
:10558c000c080000000000000000000000000000fb
:10559c0000000000000000000000000000000000ff
:1055ac00000000001010000010100000101000008f
:1055bc001010000000000000080f000007000000a1
:1055cc0000000000000000000000000000000000cf
:1055dc0000000000009000009090000090f000008f
:1055ec00e0000000070f000008080000080700009a
:1055fc000f08000001ff0000ff1000001030000039
:10560c00e0c00000080f00000708000008080000b8
:10561c000f070000e0f00000101000001010000058
:10562c0030200000070f00000808000008080000e8
:10563c000c040000c0e000003010000011ff00005e
:10564c00ff000000070f000008080000080700001a
:10565c000f080000e0f00000909000009090000017
:10566c00f0e00000070f0000080800000808000028
:10567c000c04000000100000feff000011110000df
:10568c0003020000000800000f0f000008000000db
:10569c0000000000e0f000001010000010e000001e
:1056ac00f0100000276f000048480000487f000001
:1056bc003f00000001ff0000ff2000001010000060
:1056cc00f0e00000080f00000f00000000000000d8
:1056dc000f0f00000010000010f60000f600000094
:1056ec000000000000080000080f00000f08000078
:1056fc00080000000000000010100000f6f600008a
:10570c000000000030600000404000007f3f0000bf
:10571c000000000001ff0000ffc00000c06000009e
:10572c0030100000080f00000f0000000103000003
:10573c000e0c00000001000001ff0000ff00000043
:10574c000000000000080000080f00000f08000017
:10575c0008000000f0f0000030e00000e030000035
:10576c00f0e000000f0f0000000700000700000031
:10577c000f0f000010f00000e010000010100000ef
:10578c00f0e00000000f00000f000000000000001f
:10579c000f0f0000e0f000001010000010100000cf
:1057ac00f0e00000070f00000808000008080000e7
:1057bc000f07000010f00000e010000010100000b7
:1057cc00f0e00000407f00007f4800000808000067
:1057dc000f070000e0f000001010000010e00000c7
:1057ec00f0100000070f000008080000487f0000c0
:1057fc007f40000010f00000e010000010100000ce
:10580c0030200000000f00000f000000000000001e
:10581c000000000060f0000090900000901000006c
:10582c0030200000040c00000808000009090000ea
:10583c000f06000010100000feff0000101000000a
:10584c000000000000000000070f0000080c000022
:10585c0004000000f0f000000000000000f0000068
:10586c00f0000000070f0000080800000807000007
:10587c000f080000f0f00000000000000000000025
:10588c00f0f0000001030000060c00000c06000004
:10589c0003010000f0f00000008000008000000018
:1058ac00f0f00000070f00000c070000070c0000d0
:1058bc000f0700001030000060c00000c060000046
:1058cc0030100000080c0000060300000306000066
:1058dc000c080000f0f000000000000000000000c8
:1058ec00f0f00000474f00004848000048680000f6
:1058fc003f1f00003030000010900000d0700000fe
:10590c00301000000c0e00000b090000080800000d
:10591c000c0c000000000000000000000000000063
:10592c00005f0000000000000007000000070000fe
:10593c00001400007f1400007f140000242a0000d3
:10594c007f2a00001223000013080000646200008c
:10595c0036490000552200005000000005030000ed
:10596c0000000000001c00002241000000000000ac
:10597c00412200001c000000082a00001c2a000024
:10598c0008080000083e0000080800000050000055
:10599c0030000000000800000808000008080000a3
:1059ac000030000030000000002000001008000053
:1059bc00040200003e510000494500003e0000007a
:1059cc00427f00004000000042610000514900008d
:1059dc0046210000414500004b3100001814000026
:1059ec00127f0000102700004545000045390000db
:1059fc003c4a0000494900003001000071090000d8
:105a0c000503000036490000494900003606000035
:105a1c0049490000291e0000003600003600000035
:105a2c0000000000563600000000000000080000d6
:105a3c00142200004114000014140000141400007f
:105a4c004122000014080000000200000151000077
:105a5c000906000032490000794100003e7e00003a
:105a6c0011110000117e00007f490000494900001f
:105a7c00363e000041410000412200007f41000001
:105a8c00412200001c7f00004949000049410000f0
:105a9c007f09000009010000013e000041410000a7
:105aac00513200007f080000080800007f00000051
:105abc00417f00004100000020400000413f0000f9
:105acc00017f000008140000224100007f4000000c
:105adc0040400000407f000002040000027f0000f4
:105aec007f040000081000007f3e000041410000d0
:105afc00413e00007f09000009090000063e00003d
:105b0c0041510000215e00007f09000019290000ae
:105b1c0046460000494900004931000001010000df
:105b2c007f010000013f000040400000403f0000aa
:105b3c001f200000402000001f7f000020180000e4
:105b4c00207f0000631400000814000063030000b1
:105b5c000478000004030000615100004945000076
:105b6c0043000000007f00004141000002040000df
:105b7c000810000020410000417f000000000000e0
:105b8c00040200000102000004400000404000003c
:105b9c004040000000010000020400000020000052
:105bac0054540000547800007f4800004444000026
:105bbc003838000044440000442000003844000001
:105bcc00444800007f380000545400005418000072
:105bdc00087e0000090100000208000014540000b7
:105bec00543c00007f080000040400007800000012
:105bfc00447d00004000000020400000443d0000b7
:105c0c00000000007f10000028440000004100004c
:105c1c007f400000007c00000418000004780000a5
:105c2c007c080000040400007838000044440000a4
:105c3c00443800007c140000141400000808000014
:105c4c0014140000187c00007c0800000404000000
:105c5c00084800005454000054200000043f000089
:105c6c0044400000203c000040400000207c00002c
:105c7c001c200000402000001c3c000040300000b4
:105c8c00403c00004428000010280000440c000098
:105c9c0050500000503c000044640000544c000084
:105cac004400000008360000410000000000000025
:105cbc007f000000000000004136000008000000da
:105ccc00080800002a1c0000080800001c2a00001c
:105cdc0008080000000000000000000000000000a8
:105cec0000000000000000000000000000000000a8
:105cfc000000000000000000000000000000000098
:105d0c000000000000000000000000000000000087
:105d1c000000000000000000000000000000000077
:04611c00000000007f
:020000040000fa
:106120000000fa00cda2a900cdc2a9000080fa00ab
:10613000000006000200fa00004f78001e427800be
:10614000e04f5200050032001517800004022000c5
:1061500004827200141788000400370015178000ad
:10616000f4fd2f0004826200141788000080fa00fa
:10617000000006000200fa00004f78001e4278007e
:10618000e04f520004003200141780000440a000c9
:10619000141788000400370015178000f4fe2f0044
:1061a00004826200141788000080fa0000000600d4
:1061b0000200fa00004f78001e427800e04f5200c3
:1061c00004003200141780000410a0001417880087
:1061d0000400370015178000d4ff2f0004826200ee
:1061e000141788000080fa00000006000200fa0080
:1061f000004f78001e427800e04f52000400320049
:10620000141780000400a000141788000400370051
:1062100015178000e4ff2f00048262001417880025
:106220000080fa00000006000200fa00004f78002b
:106230001e427800e04f52000500320055168000e3
:106240000402200004827200541688000400370003
:1062500055168000f4fd2f00048262005416880059
:106260000080fa00000006000200fa00004f7800eb
:106270001e427800e04f52000400320054168000a5
:106280000440a00054168800040037005516800012
:10629000f4fe2f0004826200541688000080fa0089
:1062a000000006000000fa00dea2a900de82a900bc
:1062b000de22a900de02a900a8a2a800c6a2a900a9
:1062c000a882a800c682a900a802a800c602a90048
:1062d000a822a800c622a900a842a800c642a90078
:1062e000a862a800c662a900d202a900d222a90011
:1062f000d242a900d262a9000080fa000000060084
:106300000200fa00004f78001e427800e04f520071
:1063100008003a00d202a900d222a900d242a90064
:10632000d262a900c662a900c642a900c622a9007d
:10633000c602a9001e427800e14f520008003a0050
:10634000d202a800d222a800d242a800d262a8009d
:10635000c662a800c642a800c622a800c602a800bd
:106360000080fa00000006000400fa0020479800b0
:106370002e429000044f7800b516800004ff2f00d5
:1063800004826200b41688005516800004ff2f00b6
:1063900004826200541688009e4278006fc2620038
:1063a000144798001e4290008482fb00541680001f
:1063b00004827200541688009e4278000582fb0019
:1063c0004422de00044f78001e4278008482fb00e5
:1063d000b416800004827200b41688000080fa00af
:1063e000000006000200fa00a4168000044f7800a6
:1063f0001e427800450020000522dd00044f780091
:1064000044168000144798001e4290006f426200bc
:10641000144798001e4290001e4242001447980004
:106420001e429000044078000080fa000000060040
:106430000000fa0010c0b3004eff07000040eb0060
:106440004cff07000080fa00000006000200fa007e
:10645000004f78000040eb0064ff07000040eb00b5
:1064600053ff07001e407800bfff0700f0ff070042
:106470000080fa00000006000400fa0010079800ef
:106480000002eb00040f7800010037001e0fe80047
:106490001e0290009e027800848f5200fbff39009c
:1064a0000080fa00000006000200fa000040eb0045
:1064b0004eff070010c0b3003dff070010c0b3003f
:1064c0008fff070010c0b3002aff0700c5ff0700b9
:1064d00000427800044f78000040eb0025ff0700e1
:1064e00003003700bfff070000427800044f780028
:1064f0001e427800e04f5200faff35000080fa009b
:10650000000006000200fa00004f7800f4c3b30058
:106510009e42780084cf52000a003e0010c0b300b3
:106520003900070004c4b3001e4272000440780022
:10653000c6ff070014c0b3000440780022e8b7008b
:106540000f0037001e427800e04f52000c0035006b
:106550000040eb002c00070004ccb3001e424200b8
:106560008442780004c4b30004c27200044078007e
:10657000b6ff07000042eb000440780022e8b700b5
:106580001e40780020e8b7000080fa0000000600f6
:106590000200fa00004f78001e427800e74f5200d8
:1065a00006003e0084cbb3001e4272000440780017
:1065b000a6ff07001e40780021e8b7000080fa001f
:1065c000000006000200fa00004f78001147980012
:1065d0001e407800cbff07001e409000ecff070034
:1065e0000080fa00000006000200fa00004f780068
:1065f00004ccb3001e4272000440780093ff0700f1
:106600000080fa00000006000200fa00004f780047
:106610000040eb00f5fe07001e427800e04f5200fc
:106620000c003a000040eb00e1fe070010c0b30090
:106630000dff07000040eb00fbfe0700f0c3b300b6
:1066400082ff07000042eb000440780022e8b70018
:106650000b0037000040eb00d5fe07000040eb00c8
:1066600001ff070010c0b300effe0700f0c3b30046
:1066700076ff070014c0b3000440780022e8b7009a
:106680000080fa00000006000200fa0010c0b3000b
:106690001bff070010c0b300d4fe070010c0b300fa
:1066a000c3fe070062ff070010c0b300b1fe070081
:1066b0004cff070000427800044f78000040eb00d8
:1066c000acfe07000040eb000dff07000040eb00b0
:1066d000c6fe07000040eb00b5fe07001e42780032
:1066e000044078000080fa00000006000000fa0074
:1066f0000040eb001cff07000040eb00bbfe070062
:106700000040eb00aafe07000040eb0099fe0700e6
:106710000040eb00d4fe07000040eb00c2fe070083
:1067200010c0b30083fe0700a000200052ff070046
:106730000040eb007ffe0700a00020004eff070096
:1067400010c0b3007bfe070010c0b300aeff07000f
:10675000e0c3b3003dff070000ccb3003bff0700e0
:1067600080cbb30039ff070000c4b30037ff070038
:10677000f0c3b30035ff07000040eb00a2ff0700a5
:10678000e0c3b30031ff070000ccb3002fff0700c8
:1067900080cbb3002dff070000c4b3002bff070020
:1067a000f0c3b30029ff07000080fa0000000600d4
:1067b0000200fa00004f780010c0b3008bfe070003
:1067c0000040eb007afe07001e407800e6fe07005e
:1067d00017ff07000080fa00000006000200fa0020
:1067e0000042eb00144798001d0037009e409000c7
:1067f0000040eb0073ff07000042eb00044f7800fd
:10680000030037000040eb00e9ff07001e4fe800df
:10681000f4c3b3009e42780084cf5200f9ff3600e3
:106820009e40900000c4b30066ff07000042eb00ea
:10683000044f7800030037000040eb00dcff070046
:106840001e4fe800f4c3b3009e42780084cf52008c
:10685000f9ff36001e4290000442e80014479800f9
:106860001e429000e74f5200e0ff36000080fa0021
:10687000000006000200fa000042eb0014479800f6
:106880001d0037009e4090000040eb004dff0700c8
:106890000042eb00044f78000300370000c0eb001b
:1068a000c3ff07001e4fe800f4c3b3009e42780008
:1068b00084cf5200f9ff36009e40900000c4b30020
:1068c00040ff07000042eb00044f78000300370050
:1068d00000c0eb00b6ff07001e4fe800f4c3b30092
:1068e0009e42780084cf5200f9ff36001e4290008d
:1068f0000442e800144798001e429000e74f5200ff
:10690000e0ff36000080fa00000006000400fa00f4
:10691000100798000042eb00144798003000370041
:106920009e4090000040eb0026ff07000042eb0075
:10693000044f78000c0037001e4290000482fb00d8
:10694000c722dd001e4378000682fb00048242005d
:106950009e029000048242001442780004407800b5
:1069600093ff07001e4fe800f4c3b3009e42780077
:1069700084cf5200f0ff36009e40900000c4b30068
:1069800010ff07000042eb00044f78000d003700b5
:106990001e4290000482fb00c722dd001e437800e7
:1069a0000682fb00048242000404b0009e029000b4
:1069b0000482420014427800044078007cff070003
:1069c0001e4fe800f4c3b3009e42780084cf52000b
:1069d000efff36001e4290000442e8001447980082
:1069e0001e429000e74f5200cdff36000080fa00b3
:1069f000000006000400fa00204798003147980084
:106a00000042eb00044f78003e4290000482fb00fd
:106a10004322de0004427800844078002e4090003b
:106a2000e8fe070018ff070000427800044f7800d6
:106a30003e4290000482fb004322de0004427800c4
:106a4000844078002e409000defe07003e42900019
:106a50000482fb006702620015002000042add00aa
:106a6000844278001e42780004c27200044078001c
:106a70004fff07000080fa00000006000400fa0043
:106a800020479800314798000042eb00044f7800ff
:106a90003e4290000482fb004322de000442780064
:106aa000844078002e409000c6fe0700f6fe0700e6
:106ab00000427800044f78003e4290000482fb00c0
:106ac0004322de0004427800844078002e4090008b
:106ad000bcfe07003e4290000482fb006702620099
:106ae00015002000042add000442780084c2ea0078
:106af0001e42780004c26200044078002cff0700a8
:106b00000080fa00000006000c00fa00004f980018
:106b1000114f9800224f98000002eb00040f7800fc
:106b20000002eb00140798000002eb002407980015
:106b30009e4a90000e4a900004c25200644798009a
:106b40002e4a90000482fb00140798002e4a900001
:106b50008482fb00e4ff2f0004aab900040278003d
:106b6000630f4200740037001e02900084427800d8
:106b70001e4a900084c242002e0290000443780016
:106b80000e4a90000442430085407800044078009b
:106b900098ff07001e029000044278009e4a900071
:106ba00084c252002e029000044378000e4a9000e6
:106bb0000442430085407800044078008dff0700c0
:106bc0001e029000844278001e4a900084c2420057
:106bd0002e029000044278000e4b900004425300b5
:106be000854078000440780082ff07001e02900074
:106bf000044278009e4a900084c252002e02900007
:106c0000044278000e4b9000044253008540780007
:106c10000440780077ff07002e029000844278003d
:106c20001e4a900084c242001e0290000443780075
:106c30001e4a9000044343006e42900004425300f9
:106c400085407800044078006aff07002e0290001b
:106c5000044278009e4a900084c252001e029000b6
:106c6000044378001e4a9000044343006e429000a3
:106c70000442530085407800044078005dff07001f
:106c80002e029000844278001e4a900084c2420086
:106c90001e029000044278001e4b900004435300f3
:106ca0006e42900004425300854078000440780012
:106cb00050ff07002e029000044278009e4a900088
:106cc00084c252001e029000044278001e4b9000c5
:106cd000044353006e429000044253008540780004
:106ce0000440780043ff07001e027800e00f5200c6
:106cf00005003d002e0290004222dd0066024200a7
:106d00001e0f420009003700ae0290001e029000e4
:106d1000048252004222dd006a0242001e0f42003d
:106d20001e0290000402e900140798002e02900051
:106d30000402e80024079800ae0290001e029000b2
:106d4000848f520088ff34000080fa0000000600a3
:106d50000600fa0020479800314798004247980003
:106d6000534798000042eb00044f78000042eb00cc
:106d7000044f78000b0037002e4290001e42420064
:106d8000be409000044078001aff07002e42900099
:106d90001e424200de4090000440780015ff0700cc
:106da0001e4fe8001e4278008482fb004e42900095
:106db0000483fb002e4290000482fb000402530077
:106dc0000402e800848f5200ebff35000042eb0024
:106dd000044f78000b0037003e4290001e424200f4
:106de000844078002e40900002ff07003e42900051
:106df0001e424200844078004e409000fdfe070095
:106e00001e4fe8001e4278008482fb005e42900024
:106e10000483fb003e4290000482fb000402530006
:106e20000402e800848f5200ebff35000080fa0076
:106e3000000006000400fa002047980004822000a9
