:020000040000fa
:080000000001040000000000f3
:020000040000fa
:04000800580200009a
:020000040000fa
:04000c005802000096
:020000040000fa
:040010005802000092
:020000040000fa
:04001400580200008e
:020000040000fa
:04001800580200008a
:020000040000fa
:04001c005802000086
:020000040000fa
:040020005802000082
:020000040000fa
:04002400580200007e
:020000040000fa
:04002800580200007a
:020000040000fa
:04002c005802000076
:020000040000fa
:040030005802000072
:020000040000fa
:04003400ec010000db
:020000040000fa
:04003800580200006a
:020000040000fa
:04003c005802000066
:020000040000fa
:0400400008020000b2
:020000040000fa
:04004400580200005e
:020000040000fa
:04004800580200005a
:020000040000fa
:04004c00240200008a
:020000040000fa
:040050005802000052
:020000040000fa
:04005400c8010000df
:020000040000fa
:04005800580200004a
:020000040000fa
:04005c005802000046
:020000040000fa
:040060005802000042
:020000040000fa
:04006400580200003e
:020000040000fa
:04006800580200003a
:020000040000fa
:04006c005802000036
:020000040000fa
:040070005802000032
:020000040000fa
:04007400580200002e
:020000040000fa
:04007800580200002a
:020000040000fa
:04007c005802000026
:020000040000fa
:040080005802000022
:020000040000fa
:04008400580200001e
:020000040000fa
:04008800580200001a
:020000040000fa
:04008c005802000016
:020000040000fa
:040090005802000012
:020000040000fa
:04009400580200000e
:020000040000fa
:04009800580200000a
:020000040000fa
:04009c005802000006
:020000040000fa
:0400a0005802000002
:020000040000fa
:0400a40058020000fe
:020000040000fa
:0400a80058020000fa
:020000040000fa
:0400ac0058020000f6
:020000040000fa
:0400b00058020000f2
:020000040000fa
:0400b40058020000ee
:020000040000fa
:0400b80058020000ea
:020000040000fa
:0400bc0058020000e6
:020000040000fa
:0400c00058020000e2
:020000040000fa
:0400c40058020000de
:020000040000fa
:0400c80058020000da
:020000040000fa
:0400cc0058020000d6
:020000040000fa
:0400d00058020000d2
:020000040000fa
:0400d40058020000ce
:020000040000fa
:0400d80058020000ca
:020000040000fa
:040108005802000099
:020000040000fa
:04010c005802000095
:020000040000fa
:040110005802000091
:020000040000fa
:04011400580200008d
:020000040000fa
:040118005802000089
:020000040000fa
:04011c005802000085
:020000040000fa
:040120005802000081
:020000040000fa
:04012400580200007d
:020000040000fa
:040128005802000079
:020000040000fa
:04012c005802000075
:020000040000fa
:040130005802000071
:020000040000fa
:04013400ec010000da
:020000040000fa
:040138005802000069
:020000040000fa
:04013c005802000065
:020000040000fa
:0401400008020000b1
:020000040000fa
:04014400580200005d
:020000040000fa
:040148005802000059
:020000040000fa
:04014c002402000089
:020000040000fa
:040150005802000051
:020000040000fa
:04015400c8010000de
:020000040000fa
:040158005802000049
:020000040000fa
:04015c005802000045
:020000040000fa
:040160005802000041
:020000040000fa
:04016400580200003d
:020000040000fa
:040168005802000039
:020000040000fa
:04016c005802000035
:020000040000fa
:040170005802000031
:020000040000fa
:04017400580200002d
:020000040000fa
:040178005802000029
:020000040000fa
:04017c005802000025
:020000040000fa
:040180005802000021
:020000040000fa
:04018400580200001d
:020000040000fa
:040188005802000019
:020000040000fa
:04018c005802000015
:020000040000fa
:040190005802000011
:020000040000fa
:04019400580200000d
:020000040000fa
:040198005802000009
:020000040000fa
:04019c005802000005
:020000040000fa
:0401a0005802000001
:020000040000fa
:0401a40058020000fd
:020000040000fa
:0401a80058020000f9
:020000040000fa
:0401ac0058020000f5
:020000040000fa
:0401b00058020000f1
:020000040000fa
:0401b40058020000ed
:020000040000fa
:0401b80058020000e9
:020000040000fa
:0401bc0058020000e5
:020000040000fa
:0401c00058020000e1
:020000040000fa
:0401c40058020000dd
:020000040000fa
:0401c80058020000d9
:020000040000fa
:0401cc0058020000d5
:020000040000fa
:0401d00058020000d1
:020000040000fa
:0401d40058020000cd
:020000040000fa
:0401d80058020000c9
:020000040000fa
:10020000ef8220000eff20000e0188000000000099
:10021000000020000000e000020032000001200089
:100220002002880014000700a30007000000e0007f
:1002300003003a00a0a123000100200002003700c3
:100240000000200001002000810f7000010032003a
:1002500014000700000020000000e000020032004f
:100260000000020000000000523402000000000004
:100270000040da000000fe004440a9008024220073
:100280000000e0000300320000002000a001880010
:100290004440a800000006008a1f78008b1f7800e9
:1002a0000000060091018800800478000000eb0047
:1002b0001a003700e284440032a0b4009905ba0065
:1002c000e284440032a0b4009906ba00e2844400fb
:1002d00032a0b4000006eb00476fde00fd07b2005d
:1002e000636ce10003003a00ebff07000000eb0045
:1002f0000a003700606ce10004003a00005deb008a
:100300008b05e900fdff3e00040037006168e10055
:10031000010032000086eb000b00070019c7ba008d
:100320001905ba000e04e00003003a000a00e000dc
:10033000e0ff3a0000000600fe07b2009e018800c0
:100340008a047800f5ff3700395dba008b05e900b3
:100350000c003200295dba008b05e900080032006c
:100360000c00e00003003a00e284440032a0b40034
:10037000f5ff370019ddba008b05e900faff3a00f6
:100380008904e800e184440032a0b40000000600c3
:10039000801f78003400f80000002000a0018800d1
:1003a0000000fa00001480008040880010148000d3
:1003b0009040880080408000a040880090408000ed
:1003c000b04088008560a9000080fa003400f90080
:1003d0004f00780000400600801f78003400f800cd
:1003e00000002000a00188000000fa000021ef00ba
:1003f000204080000000e800204088008460a900c0
:100400000080fa003400f9004f0078000040060038
:10041000801f78003400f80000002000a001880050
:100420000000fa000621ef00104080000000e80004
:100430001040880084c0a9000080fa003400f90050
:100440004f00780000400600809fbe00821f7800a9
:100450003400f80000002000a00188000000fa002d
:100460008520a900f2408000901080008040780034
:10047000a08220000200400001487800f040800087
:10048000e30f500004003c00f04080000000e80052
:10049000f0408800010037001e28ef000080fa00bd
:1004a0003400f9004f0178004f00be000040060004
:1004b0000040da000000fe00000005000001be0060
:1004c0001e0007000470a70003f0a10003f8a300ba
:1004d00013003a006509b100100032000900350030
:1004e0006928e10002003500010028000000050035
:1004f00000004000818048008502e900fcff3a00ce
:1005000000000600f88f4200050035008100d10090
:100510000080d3008502e800fcff3a0000000600de
:100520008000eb00000005004f89de0082017800aa
:100530007e0237006011b8008c023700c70ade0067
:10054000f107b200f50fb20008003200e1cf42001f
:10055000020032000170a00024000500810f70002d
:10056000010032000408050044000500810f7000fe
:1005700002003a00140005008502e9000000400076
:1005800081c04800fcff3b000170a0002400050072
:10059000889fbe008a9fbe008c9fbe001b0020006b
:1005a0000202be00058668000600280006066600f6
:1005b0004709de00f20fb200820032000243e80079
:1005c00080003200c729de00f30fb2007d00320048
:1005d0000343e8007b003200f107b2000170a00085
:1005e000f507b2000570a000c708dd004903de0072
:1005f000868070004700dd00c72add004923de0049
:10060000868272004722dd0003055100040350007a
:1006100085835800030031000000400081804800bd
:100620000a05e9008c1f78008a9fbe000400500074
:10063000858058000402420085824a000000400084
:10064000818048000005eb000004be006033b80064
:100650000406be000d48e1005600310011000900fb
:100660004dccd8000c01b8000d02b80084814100c7
:1006700060824a008283530003045c0084845c002f
:1006800060055d000a00e00025003a008005780062
:100690000d40e10049003100880078000700780033
:1006a000110009004d88d8000c01b8000d02b800f7
:1006b0008481410060824a006003110083835b00f3
:1006c00004045c00e0845c000900e00021003a00c2
:1006d0004f01be000300e0002b003200e301600088
:1006e000070673008c817100010032006400700005
:1006f0004200de004e5edd000c007000c258de00dd
:1007000001e0a00083010700cf0178008180710023
:100710004f06be004f05be004f04be00000006009d
:100720008c8343000d044c00e0844c0060054d00b8
:100730000000e9000a00e000d4ff32008c8343008f
:100740000d044c00e0844c0060054d000000e90001
:10075000ceff37000c0343008d834b0060044c0038
:10076000e0844c000000e9000900e000d8ff3200fe
:100770000c0343008d834b0060044c00e0844c006c
:100780000000e900d2ff37004200de004e5edd00cf
:100790000c007000c258de0001e0a000cf0178001c
:1007a0000300e000daff320060001000e080180073
:1007b000d7ff3700f0ff2f00aaff3700f0ff2f0010
:1007c000b9ff37000404be002f0107008706780038
:1007d0000004fd008104fd002b0107000783660073
:1007e0000678a300030032000960a7000800be00dd
:1007f0002c0037000d78a300020032000800be0074
:10080000280037000778a30026003a0001f0a10075
:1008100009f0a1000668a30003003200f1ff2700e1
:10082000f0ff2f00baff37000d68a300030032006d
:100830000800be008c807000b5ff37000768a30079
:1008400007003a000648a30003003200f1ff27002a
:10085000f0ff2f00aeff37000d48a3000300320069
:100860006000b8008c807000a9ff37000748a30023
:100870000400320001f82700000020008c80700086
:10088000a3ff3700760107000004fd008104fd008e
:1008900002057800720107000802be008a01780094
:1008a00059ff37000160a000120220002241880099
:1008b00097ff37000100e000120032000500e00061
:1008c00010003200889fbe008a9fbe008c9fbe0031
:1008d0000006eb0001f8a3000300320060001000e6
:1008e000e08018000cf0a00005f8a300030032001f
:1008f00060021200e0821a000cf0a2008005eb00fa
:1009000041ff37006000b800020005000383680063
:100910000700280007036300470ade000480a100e7
:10092000c71ade000580a100f70f20000720e100b4
:10093000420032000728e10040003200889fbe00dc
:100940008a9fbe008c1f7800f107b200f307b20047
:100950000400e000640032000170a0000500e00027
:10096000680032000370a00085054200eb07b1006b
:100970000204b8000302b8008484440060854a0081
:10098000020ab800848444000a854a00030ab800b9
:1009900004054500040033000804d0008984d20017
:1009a0000a85d2008b05e9006158e1003d00350061
:1009b0000210200009016100030820008981610004
:1009c000f70720008783640008867300c84cde00a8
:1009d000c853dd00878474004855de000300e00042
:1009e0000600320082037600040032008904e80029
:1009f00060054d000a88a3000c003a00f70f2000a4
:100a00000758e10044003d000a70a100c75ddd0009
:100a10000a8575008a007300090078004f06780087
:100a20004f05be004f04be00000006000a05d100bd
:100a30008984d3008b05e800f0ff3700881f780019
:100a40000604780090000700070278000001fd000e
:100a50008101fd008c000700870278008503720089
:100a60000778a300050032000001fd008101fd00b0
:100a70009f0007004f047800000006008503720005
:100a80000748a30003003200f0ff2f00f1ff27000a
:100a9000f8ff37000000200001f827008880700070
:100aa000f4ff3700880178004848dd00808171003c
:100ab0004848de00c850dd0001007000c850de006c
:100ac000060478000b01780016000700888070008b
:100ad000d2ff37000500e0000500320017002000bb
:100ae0003a0007009dff370081037000f9ff3a00cc
:100af000860078004f0678004f05be004f04be0008
:100b00000000050083037100f9ff32002700200078
:100b10002e00070094ff370001f827008680700040
:100b2000f4ff37000100e0002600320061011100ef
:100b30007810e10023003c006022b8007010e10052
:100b40000400350080027800010078008000eb008e
:100b5000700151000200e000090034007003110030
:100b6000062add00822ade008603dd00878272000d
:100b70000200de00860bdd00070070008208de0048
:100b800084817100f4ff2700048262008481710077
:100b900004002800848262006102600005f0a60063
:100ba0000000060004827100070032000000e80027
:100bb000e0804800000006000002be006000b800af
:100bc000efff37006000b80000000600889fbe00fd
:100bd0000004eb006138e10016003a000100e0007b
:100be00008003a00c800de004800dd008800200050
:100bf0000100e00003003a00c800de004800dd000c
:100c0000680444008184cf00e98454000600340065
:100c10008908dd00f08314008703de008780700000
:100c20000900dd0009044400610214004f04be0005
:100c3000000006000300e00008003a00c811de00d2
:100c40004811dd00880020000300e00003003a00a6
:100c5000c811de004811dd00680444008384cf0021
:100c6000e9845400060034008919dd00f083140083
:100c70008713de00878171000911dd00090444003b
:100c8000e1021400e9ff37002700200001f0a7006f
:100c900017002000470bde00f60fb2000400320000
:100ca0000643e8000a0032004702b30000000600d5
:100cb00001037800f607b2000603700002003a0054
:100cc0000703b300000006008702b300000006001f
:100cd00001037800f607b20006037000020032003c
:100ce0000770a000000006000760a00000000600da
:100cf0000478a300040032000578a300030032004a
:100d00000168a30001003a000200be000160a000db
:100d10000000060081017000270032008002eb0015
:100d200001f8a3000300320060001000e08018000a
:100d300015002000f40720000202420020003400c9
:100d4000f70320008703600006042000000363000f
:100d500002082000000161004700de00c909dd0033
:100d600000807100c708de000600e00008003200c5
:100d700087037100060032001000b0000180b0004f
:100d80000188a30002003200c108de000402e8006e
:100d9000f107b200f30f20000320e10003003d0043
:100da0004722dd00810072002900370001f827008a
:100db0000000eb00260037006000b80000000600cd
:100dc000680212007f20e100020034006000b800d9
:100dd0001f0037006011b8007020e10004003500ea
:100de00080017800010078008000eb007002520062
:100df0000400e00009003400f00312000719dd00d0
:100e00008419de000703dd00868171000400de0026
:100e1000070bdd00060070008408de00f7ff2700e6
:100e200083836300870371000600280003036300c7
:100e3000070032000700e00003003a006101600093
:100e400002817300020032001000b0000180b00087
:100e50000500a6000000060001f0a000000006004a
:100e60004f0ade004709de00f107b200f20fb200c0
:100e70000b003200f207b1000170a000c708dd00ce
:100e8000c901de00838070004700dd000400a60079
:100e90000000060060001000e0801800000006005e
:100ea000810f700001003a00000006008182cf002f
:100eb0000500e00010003e008082cf00ee8242007c
:100ec0007028e1000400390007003e00800078002f
:100ed0000000eb000e003700708312008600de0079
:100ee0000500dd000a003700708352008600dd0037
:100ef0000000eb0006003700e28252008508dd00aa
:100f0000708312000603de00868070000500dd009d
:100f10007507b0000501ea000400a6000000060005
:100f200060001000e080180000000600881f7800b4
:100f3000030478000300e00007003d00600010009b
:100f4000e080180060011900e081190002003b00f8
:100f500001f02d00030037000400070008f0a7008f
:100f600001f0a0004f04780000000600889fbe003a
:100f70008a9fbe000082700004027100048271002a
:100f8000260032000004be000200be006011b8005e
:100f90006b092000950220000182cf000a00390071
:100fa0000541b1000082cf00070039000541b100c2
:100fb0000982cf00040039000541b1000882cf004a
:100fc000010039000541b100054252001200320013
:100fd0000a003b0082817100610164008100d10040
:100fe0000080d3008984d3000884d3008b05e800f7
:100ff0000442e800f7ff3a00070037000804440005
:1010000089844c0000004800818048008b05e9007d
:101010000442e900f9ff3a00030007004f05be0053
:101020004f04be00000006008100200061805500d2
:101030000b003d000b00200061fe2f000100e100cd
:101040001d00340082817100610164008904d100b7
:101050000884d3000000e800faff3a007100200085
:1010600061006400030070000200600009003200ab
:1010700061044400e0844c000988a50005003200aa
:101080008b05e8006808e10002003a008904d100fd
:101090000884d300f20f20000258e10005003d0053
:1010a000c75ddd00f907b20089807500080078008f
:1010b000000006000bf827008b00780000000500f8
:020000040000fa
:1010c0003132000033340000393800003736000078
:1010d0000000000000000000000000000000000010
:1010e0000000000000000000000000000000000000
:1010f00000000000000000000000000000000000f0
:1011000000000000000000000000000000000000df
:1013e0000000000000000000fe12000012120000c9
:1013f00000000000fe3000004886000000000000f1
:10140000fe220000226200009c00000000e00000bc
:101410005c4600005ce0000000000000fe060000ea
:1014200018600000c0fe0000000000000000000086
:1014300000000000fe00000000fe0000121200008c
:10144000120000000000000000000000c2220000a6
:101450001a06000000000000e05c0000465c00008e
:10146000e000000000fe00003048000086000000a0
:1014700000fe0000000000000000000000fe000070
:1014800000000000fe8000000000000000fe0000e0
:1014900000000000cc020000020200000400000076
:1014a000e05c0000465c0000e000000000fe000080
:1014b0000618000060c00000fe00000000000000f0
:1014c000000000000000000000000000000000001c
:1014d000000000000000000000000000000000000c
:1014e00000000000000000000101000001010000f8
:1014f00000000000010000000000000001000000ea
:1015000001000000000000000100000001000000d8
:1015100000000000000000000100000001000000c9
:1015200000000000000100000000000000000000ba
:1015300001010000000000000001000001010000a6
:101540000100000000000000000100000101000097
:101550000101000000010000000000000000000088
:101560000001000000010000000000000001000078
:101570000001000001010000010100000100000065
:101580000000000000010000010100000100000057
:101590000000000000010000010100000001000047
:1015a0000000000000000000000100000001000039
:1015b000000000000000000001000000000000002a
:1015c000000000000000000000000000000000001b
:1015d000000000000000000000000000000000000b
:1015e00000000000000000000000000000000000fb
:1015f00000000000000000000000000000000000eb
:1019d00000800000c0400000000000000000000087
:1019e00000000000000000000000000000000000f7
:1019f00000000000000000000000000000000000e7
:101a000000000000000000000000000000000000d6
:101a1000000000000000000000400000c080000046
:101a200000000000000000000080000040000000f6
:101a300000000000000000000000000000000000a6
:101a40000000000000000000000000000000000096
:101a50000000000000000000000000000000000086
:101a60000000000000000000000000000000000076
:101a700000400000800000000000000000000000a6
:101a800080c00000400000000000000000000000d6
:101a90000000000000000000000000000000000046
:101aa0000000000000000000000000000000000036
:101ab0000000000000000000000000000000000026
:101ac000000000000000000040c000008000000096
:101ad000007f0000ff000000000000000000000088
:101ae00000000000000000000000000000000000f6
:101af0000004000004040000021e00001e1e00007e
:101b000000000000000000000000000000000000d5
:101b1000000000000000000000000000ffff0000c7
:101b2000000000000000000000ff00008000000036
:101b300000000000000000000000000000000000a5
:101b4000000000000020000032320000123a0000c5
:101b50002a2a00002e2600002400000000000000b9
:101b60000000000000000000000000000000000075
:101b700000000000ff000000000000000000000066
:101b8000ffff000000000000000000000000000057
:101b90000000000000000000000000000012000033
:101ba0001222000022200000263e00001e1a000023
:101bb0001000000000000000000000000000000015
:101bc000000000000000000000ff0000ff00000017
:101bd00000f00000f8090000010100000000000012
:101be00000000000000000000000000000000000f5
:101bf0000000000080800000c0c00000c0c00000e5
:101c000000000000000000000000000000000000d4
:101c1000000000000000000001090000f8f00000d2
:101c2000000000000000000000f0000008010000bb
:101c300001000000000000000000000000000000a3
:101c4000000000000000000080c00000c040000054
:101c50004040000040400000000000000000000084
:101c60000000000000000000000000000001000073
:101c700001080000f000000000000000000000006b
:101c8000f0f8000009010000010000000000000061
:101c900000000000000000000000000000800000c4
:101ca00080c00000c04000004040000040400000f4
:101cb00040000000000000000000000000000000e4
:101cc000000000000001000009f80000f000000022
:101cd000001f00001f200000200000000000000086
:101ce00000000000000000000000000000020000f2
:101cf00003030000030200000203000007070000c6
:101d000002020000000000000000000000000000cf
:101d10000000000000000000202000001f1f000045
:101d20000000000000000000001f00000020000074
:101d30002000000000000000000000000000000083
:101d40000000000000020000020200000404000085
:101d50000404000003030000030000000000000072
:101d60000000000000000000000000000020000053
:101d7000200000001f000000000000000000000024
:101d80001f1f0000202000000000000000000000d5
:101d90000000000000000000000000000003000040
:101da0000307000007050000040400000507000009
:101db0000703000000000000000000000000000019
:101dc0000000000000200000201f00001f00000095
:101dd00000fe0000ff010000000000000000000005
:101de00000000000000000000000000000000000f3
:101df0000808000048680000683800001808000063
:101e000008000000000000000000000000000000ca
:101e1000000000000000000000010000fffe0000c4
:101e2000000000000000000000ff000001000000b2
:101e300000000000000000000000000000000000a2
:101e4000000000000060000078780000988000002a
:101e5000809800007878000060000000000000001a
:101e60000000000000000000000000000000000072
:101e700000010000ff000000000000000000000062
:101e8000feff000001000000000000000000000054
:101e900000000000000000000000000010580000da
:101ea00078680000a8a8000028780000787000007a
:101eb00030000000000000000000000000000000f2
:101ec000000000000000000001ff0000fe00000014
:101ed00000c10000e3200000040400000000000036
:101ee00000000000000000000000000000000000f2
:101ef00000000000000000000000000000000000e2
:101f000000000000000000000000000000000000d1
:101f1000000000000004000004200000e3c10000f5
:101f2000000000000000000000c3000022040000c8
:101f3000040000000000000000000000000000009d
:101f40000000000000000000000000000000000091
:101f50000000000000000000000000000000000081
:101f6000000000000000000000000000000400006d
:101f700004220000c3000000000000000000000078
:101f8000c1e3000020040000040000000000000085
:101f90000000000000000000000000000000000041
:101fa0000000000000000000000000000000000031
:101fb0000000000000000000000000000000000021
:101fc000000000000404000020e30000c100000045
:101fd000003f00007f0000008000000000000000c3
:101fe00000000000000000000001000019090000ce
:101ff0000b0e00000e06000004060000060e000096
:102000000b090000190100000000000000000000a2
:102010000000000000000000800000007f7f000042
:102020000000000000000000007f000000800000b1
:1020300000000000000000000000000000000000a0
:1020400000000000000e00000f0f0000191100003a
:10205000111100000f0f00000e0000000000000032
:102060000000000000000000000000000000000070
:10207000800000007f000000000000000000000061
:102080007f7f0000008000000000000000000000d2
:102090000000000000000000080800000808000020
:1020a00018180000180c00000c06000006030000c1
:1020b000030100000100000000000000000000001b
:1020c0000000000000800000007f00007f00000092
:1020d0000000000000000000000000000000000000
:1020e00000000000000000000000000000000000f0
:1020f00000000000000000000000000000000000e0
:1021000000000000000000000000000000000000cf
:1022e000000000000000000000000000007f00006f
:1022f000c080000080c000007f00000000000000df
:1023000000000000ff110000111100000e0000008d
:10231000007e0000c281000081810000437e000039
:1023200000800000e1b1000089870000810000000a
:1023300000000000000100000e700000c0700000ee
:102340000e010000007f0000c080000080c000007f
:102350007f00000000000000000000008f890000e6
:1023600091f00000000100000101000001010000e7
:1023700001000000ff890000898900008100000041
:1023800000000000008f000089910000f0000000b4
:10239000806000002c23000027380000c0000000ef
:1023a000000000000000000000000000000000002d
:1023b000000000000000000000000000000000001d
:1023c000000000000000000000000000000000000d
:1023d00000000000000000000000000000000000fd
:1023e000000000000000000000000000008000006d
:1023f000808000008000000000000000000000005d
:1024000080800000000000000000000080800000cc
:10241000808000000000000080000000000000003c
:10242000008000000000000080800000000000002c
:10243000008000000000000000000000808000001c
:10244000000000000080000080800000800000008c
:10245000000000000000000080800000808000007c
:10246000000000000080000080000000000000006c
:10247000000000008080000000000000000000005c
:10248000000000000000000000000000000000004c
:10249000000000000000000000000000000000003c
:1024a000000000000000000000000000000000002c
:1024b000000000000000000000000000000000001c
:1024c000000000000000000000000000000000000c
:1024d00000000000000000000000000000000000fc
:1024e000000000000000000000000000007f00006d
:1024f00008080000186700000040000030160000c7
:10250000111300001c600000003f0000614000004b
:1025100040400000200000003f60000040400000fc
:10252000603f0000000000007f010000061800006e
:10253000707f000000400000301600001113000002
:102540001c600000007f0000080800001867000001
:10255000000000003f6100004040000040210000fa
:102560003f000000007f000001060000386000000e
:1025700018060000017f00000000000000000000bd
:10258000000000000000000000000000000000004b
:10259000000000000000000000000000000000003b
:1025a000000000000000000000000000000000002b
:1025b000000000000000000000000000000000001b
:1028e0000020000020200000e020000000c00000c8
:1028f000402000002020000060c0000000200000f8
:10290000c000000000000000c020000000e0000047
:102910002020000020200000000000000020000017
:10292000c000000000000000c02000000000000007
:1029300080600000e000000000000000e0200000d7
:1029400020000000000000000000000000e0000087
:102950002020000020c000000000000000800000d7
:1029600060e000000000000000c0000060200000e7
:102970002020000000000000e00000000000000037
:1029800000e0000000000000e060000080000000a7
:1029900000e00000000000000080000060e0000097
:1029a0000000000000e000002020000020c0000027
:1029b0000000000000000000000000000000000017
:1029c0000000000000000000000000000000000007
:1029d00000000000000000000000000000000000f7
:1029e000101c00001611000010100000000f000065
:1029f0001810000010100000080f00000000000078
:102a0000010e0000180e000001000000001f000071
:102a10001111000011100000000000000000000073
:102a2000010e0000180e000001000000100c000054
:102a30000504000004070000180000001111000048
:102a4000121e00000000000000000000009f0000b7
:102a5000c2c20000c6990000001000000c05000072
:102a60000404000007180000000f00001810000008
:102a700010100000080000000f18000010100000e7
:102a8000180f0000000000001f00000001060000f9
:102a90001c1f0000001000000c05000004040000d2
:102aa00007180000001f00000202000006190000c5
:102ab0000000000000000000000000000000000016
:102ac0000000000000000000000000000000000006
:102ad00000000000000000000000000000000000f6
:102ae00000000000000000000000000000000000e6
:102af00000000000000000000000000000000000d6
:102b000000000000000000000000000000000000c5
:102b100000000000000000000000000000000000b5
:102b200000000000000000000000000000000000a5
:102b30000000000000000000000000000000000095
:102b400000000000000000000000000000ff000086
:102b5000ffff0000ffff0000000000000000000079
:102b60000000000000000000000000000000000065
:102b70000000000000000000000000000000000055
:102b80000000000000000000000000000000000045
:102b90000000000000000000000000000000000035
:102ba0000000000000000000000000000000000025
:102bb0000000000000000000000000000000000015
:102bc0000000000000000000000000000000000005
:102bd00000000000000000000000000000000000f5
:102be00000000000000000000000000000000000e5
:102bf00000000000000000000000000000000000d5
:102c000000000000000000000000000000000000c4
:102c100000000000000000000000000000000000b4
:102c200000000000000000000000000000000000a4
:102c30000000000000000000000000000000000094
:102c400000000000000000000000000000ff000085
:102c5000ffff0000ffff0000000000000000000078
:102c60000000000000000000000000000000000064
:102c70000000000000000000000000000000000054
:102c80000000000000000000000000000000000044
:102c90000000000000000000000000000000000034
:102ca0000000000000000000000000000000000024
:102cb0000000000000000000000000000000000014
:102cc0000000000000000000000000000000000004
:102cd0000000000000000000fe2200002222000090
:102ce0001c00000000fe000022220000629c000088
:102cf000000000000000000000000000fe100000c6
:102d00001010000010fe0000000200001ce0000097
:102d100080e000001c02000000c0000058460000d7
:102d20004e7000008002000002020000020200005b
:102d30000200000000000000000000000000000091
:102d400000000000000000000000000000ff000084
:102d5000ffff0000ffff0000000000000000000077
:102d60000000000000000000000000000000000063
:102d70007ec2000081810000814300007e000000cf
:102d800000ff00008181000081c300007e00000080
:102d900000ff000089890000897600000000000023
:102da0000000000000800000807f000000000000a4
:102db0000000000000000000000000000000000013
:102dc0000000000000000000000000000000000003
:102dd00000000000000000000100000000000000f2
:102de00000000000000100000000000000010000e1
:102df00000000000000000000000000001000000d2
:102e000000000000000100000000000000000000c1
:102e100001000000000000000100000000000000b0
:102e200000000000010000000000000000000000a1
:102e30000000000000000000000000000000000092
:102e400000000000000000000000000000ff000083
:102e5000ffff0000ffff0000000000000000000076
:102e60000000000000000000000000000000000062
:102e70000000000000000000000000000000000052
:102e80000000000000000000000000000000000042
:102e90000000000000000000000000000000000032
:102ea0000000000000000000000000000000000022
:102eb0000000000000000000000000000000000012
:102ec0000000000000000000000000000000000002
:102ed00000000000000000000000000000000000f2
:102ee00000000000000000000000000000000000e2
:102ef00000000000000000000000000000000000d2
:102f000000000000000000000000000000000000c1
:102f100000000000000000000000000000000000b1
:102f200000000000000000000000000000000000a1
:102f30000000000000000000000000000000000091
:102f400000000000000000000000000000ff000082
:102f5000ffff0000ffff0000000000000000000075
:102f60000000000000000000000000000000000061
:102f70000000000000000000000000000000000051
:102f80000000000000000000000000000000000041
:102f90000000000000000000000000000000000031
:102fa0000000000000000000000000000000000021
:102fb0000000000000000000000000000000000011
:102fc0000000000000000000000000000000000001
:102fd00000000000000000000000000000000000f1
:102fe00000000000000000000000000000000000e1
:102ff00000000000000000000000000000000000d1
:1030000000000000000000000000000000000000c0
:1030100000000000000000000000000000000000b0
:1030200000000000000000000000000000000000a0
:103030000000000000000000000000000000000090
:1030400000000000000000000000000000ff000081
:10305000ffff0000ffff0000000000000000000074
:103060000000000000000000000000000000000060
:103070000000000000000000000000000000000050
:103080000000000000000000000000000000000040
:103090000000000000000000000000000000000030
:1030a0000000000000000000000000000000000020
:1030b0000000000000000000000000000000000010
:1030c0000000000000000000000000000000000000
:1030d00000000000000000000000000000000000f0
:1030e00000000000000000000000000000000000e0
:1030f00000000000000000000000000000000000d0
:1031000000000000000000000000000000000000bf
:1031100000000000000000000000000000000000af
:10312000000000000000000000000000000000009f
:10313000000000000000000000000000000000008f
:10314000000000000000000000000000000000007f
:10315000000000000000000000000000000000006f
:10316000000000000000000000000000000000005f
:10317000000000000000000000000000000000004f
:10318000000000000000000000000000000000003f
:10319000000000000000000000000000000000002f
:1031a000000000000000000000000000000000001f
:1031b000000000000000000000000000000000000f
:1031c00000000000000000000000000000000000ff
:1031d00000000000000000000000000000000000ef
:1031e0000000000000f000001010000010e00000df
:1031f00000000000f010000010100000e0000000cf
:10320000000000000000000000f0000080800000ce
:1032100080800000f000000010e0000000000000ce
:1032200000e000001000000000c00000307000004e
:103230008000000000e000003010000010100000ce
:1032400000000000f09000009090000010000000ce
:10325000f0300000c000000000f00000000000009e
:103260000000000000f000001010000010e000005e
:1032700000000000e02000001010000010300000ee
:10328000e00000000010000010900000701000002e
:10329000000000000000000010e00000000000003e
:1032a00000e000001000000000f800000000000036
:1032b000000000000000000000000000000000000e
:1032c00000000000000000000000000000000000fe
:1032d00000000000000000000000000000000000ee
:1032e00000000000000f00000101000001000000cc
:1032f000000000000f010000010300000c000000ae
:103300000000000000000000000f000000000000ae
:10331000000000000f00000000000000070c00008b
:103320000700000000080000060200000202000082
:10333000030c0000000700000c0800000808000053
:10334000040000000f08000008080000080000004a
:103350000f000000000300000e0f0000000000003e
:1033600000000000000f000001010000010000004b
:1033700000000000070c000008080000080400001e
:1033800007000000080e00000b08000008080000fd
:10339000000000000000000000000000070c00001a
:1033a0000700000000000000000b0000000000000b
:1033b000000000000000000000000000000000000d
:1033c00000000000000000000000000000000000fd
:1033d00000000000000000000000000000000000ed
:1033e00000000000000000000000000000000000dd
:1033f000000000000000000000e0000020200000ad
:1034000020c000000000000000c0000060c00000fc
:10341000000000000020000020a00000600000006c
:1034200000c00000402000002020000040000000fc
:1034300000c000002020000020200000c00000008c
:1034400020c000000000000000c0000020000000bc
:1034500000c0000060c000000000000000e00000ac
:103460002020000020c000000000000000c000007c
:1034700060c00000000000002020000020200000ac
:103480002020000000e000002020000020000000bc
:103490000000000000000000e0200000200000000c
:1034a0000000000000c0000060c00000000000003c
:1034b000000000000000000000000000000000000c
:1034c00000000000000000000000000000000000fc
:1034d00000000000000000000000000000000000ec
:1034e00000000000000000000000000000000000dc
:1034f0000000000000000000001f000002020000a9
:1035000006190000001000000e0500000405000070
:103510000e100000101c000012110000100000002e
:10352000000f000018100000121200001e00000022
:10353000000f000010100000101000000f0000002d
:10354000000100000e1800000e0100000010000035
:103550000e050000040500000e100000001f000012
:103560000202000006190000001000000e05000015
:10357000040500000e100000000000000000000024
:1035800000000000001f00001111000011000000e9
:10359000000000000000000011110000121a0000dd
:1035a000001000000e050000040500000e100000d1
:1035b000000000000000000000000000000000000b
:1035c00000000000000000000000000000000000fb
:1035d00000000000000000000000000000000000eb
:1035e00000000000000000000000000000000000db
:1035f000000000000000000000f0000010100000bb
:1036000010e000000000000000e0000030e00000da
:1036100000000000006000001010000010200000fa
:1036200000f000000000000000000000f0000000ba
:1036300000f0000030c0000000000000f0000000ba
:1036400000000000e0300000e0000000000000008a
:10365000f010000010100000e000000000e000008a
:103660001010000010100000e000000000f000004a
:10367000708000000000000080300000f0000000ba
:10368000000000000000000000000000000000003a
:10369000000000000000000000000000000000002a
:1036a000000000000000000000000000000000001a
:1036b000000000000000000000000000000000000a
:1036c00000000000000000000000000000000000fa
:1036d00000000000000000000000000000000000ea
:1036e00000000000000000000000000000000000da
:1036f0000000000000000000000f000001010000b9
:10370000030c000000080000070200000202000095
:10371000070800000006000008080000080000007c
:10372000000700000c080000080800000700000067
:10373000000f000000000000030600000f00000062
:103740000807000002020000020700000800000055
:103750000f010000010300000c0000000007000042
:10376000080800000808000007000000000f000023
:10377000000100000e060000010000000f00000024
:103780000008000000000000080000000008000021
:103790000000000000000000000000000000000029
:1037a0000000000000000000000000000000000019
:1037b0000000000000000000000000000000000009
:1037c00000000000000000000000000000000000f9
:1039e000000000000000000000000000ff110000c7
:1039f000111100000e000000007e0000c2810000d6
:103a000081810000437e000000800000e1b10000e1
:103a10008987000081000000000000000001000014
:103a20000e700000c07000000e01000000000000d9
:103a300000000000ff11000011310000ce00000066
:103a4000806000002c23000027380000c000000028
:103a50007ec300008181000081400000007f0000e3
:103a6000c080000080c000007f00000000ff000058
:103a7000030c000030e00000ff0000008060000048
:103a80002c23000027380000c0000000ff110000b8
:103a900011310000ce000000806000002c230000e7
:103aa00027380000c00000000000000000000000f7
:103ab0000000000000000000000000000000000006
:103ac00000000000000000000000000000000000f6
:103ad00000000000000000000000000000000000e6
:103ae00000000000000000000000000000000000d6
:103af0008080000080800000000000000080000046
:103b00008080000080800000000000000080000035
:103b10008080000080000000000000000000000025
:103b20000000000000800000000000008080000015
:103b30008080000080000000808000000000000005
:103b4000008000000000000000c000000000000035
:103b50000000000000000000000000000000000065
:103b60000000000000000000000000000000000055
:103b70000000000000000000000000000000000045
:103b80000000000000000000000000000000000035
:103b90000000000000000000000000000000000025
:103ba0000000000000000000000000000000000015
:103bb0000000000000000000000000000000000005
:103bc00000000000000000000000000000000000f5
:103bd00000000000000000000000000000000000e5
:103be0000000000000000000000000003f61000035
:103bf00040400000402100003f000000007f000026
:103c000040400000406100003f000000007f0000d5
:103c100044440000443b000000000000000000009d
:103c200000400000403f0000000000007f44000012
:103c300044440000400000007f010000061800001e
:103c4000707f000000000000005f00000000000026
:103c50000000000000000000000000000000000064
:103c60000000000000000000000000000000000054
:103c70000000000000000000000000000000000044
:103c80000000000000000000000000000000000034
:103c90000000000000000000000000000000000024
:103ca0000000000000000000000000000000000014
:103cb0000000000000000000000000000000000004
:103cc00000000000000000000000000000000000f4
:103cd00000000000000000000000000000000000e4
:103ce00000000000000000000000000000000000d4
:103cf00000000000000000000000000000000000c4
:103d000000000000000000000000000000000000b3
:103d100000000000000000000000000000000000a3
:103d20000000000000000000000000000000000093
:103d30000000000000000000000000000000000083
:103d40000000000000000000000000000000000073
:103d50000000000000000000000000000000000063
:103d60000000000000000000000000000000000053
:103d70000000000000000000000000000000000043
:103d80000000000000000000000000000000000033
:103d90000000000000000000000000000000000023
:103da0000000000000000000000000000000000013
:103db0000000000000000000000000000000000003
:103dc00000000000000000000000000000000000f3
:103dd00000000000000000000000000000000000e3
:103de00000000000000000000000000000000000d3
:103df0000000000000000000000000008000000043
:103e000000000000000000000000000000000000b2
:103e100000000000000000000000000000000000a2
:103e20000000000000000000000000000000000092
:103e30008000000000800000000000000000000082
:103e40000000000000000000000000000000000072
:103e500080000000000000000000000000000000e2
:103e60000000000000000000000000000000000052
:103e70000000000000000000000000000000000042
:103e800000800000000000000000000000000000b2
:103e90000000000000000000000000000000000022
:103ea0000000000000000000008000008080000092
:103eb0000000000000000000000000000000000002
:103ec00000000000000000000000000000000000f2
:103ed00000000000000000000000000000000000e2
:103ee00000000000000000000000000000000000d2
:103ef0000000000000000000202000001f00000063
:103f0000003c00002a2a00002e00000000220000d1
:103f10002a2a0000000200003f22000000000000ea
:103f20003c2a00002a2e00000000000000000000d3
:103f30003f00000080fe0000000000003e20000066
:103f4000203e0000000200003f22000000000000b0
:103f50003e00000000000000003e000002020000e1
:103f60003e000000002a00002a2a00003e00000057
:103f700000000000003e0000020200003e000000c1
:103f800080fe0000000000003c2a00002a2e0000f5
:103f900000400000aaaa0000aa420000002a000077
:103fa0002a2a00003e000000000000002c0400004f
:103fb0000000000000000000000000000000000001
:103fc00000000000000000000000000000000000f1
:103fd00000000000000000000000000000000000e1
:103fe00000000000000000000000000000000000d1
:103ff00000000000000000000000000000000000c1
:1040000000000000000000000000000000000000b0
:1040100000000000000000000000000000000000a0
:104020000000000000000000000000000000000090
:104030000000000000000000000000000000000080
:104040000000000000000000000000000000000070
:104050000000000000000000000000000000000060
:104060000000000000000000000000000000000050
:104070000000000000000000000000000000000040
:104080000000000000000000000000000000000030
:104090000000000000000000000000000000000020
:1040a0000000000000000000000000000000000010
:1040b0000000000000000000000000000000000000
:1040c00000000000000000000000000000000000f0
:1040d0004e65000074610000636100006e20000006
:1040e000627200006f6a0000206d0000696b0000c2
:1040f000726f00006b6f00006e740000726f000042
:104100006c650000726100000a0000005445000068
:104110004c450000464f00004e2000004f54000068
:104120004b4c00004a550000434100004e20000067
:10413000504f00004b520000455400004f4d00000e
:104140000a000000544500004c450000464f0000a6
:104150004e2000004f5400004b4c00004a55000018
:10416000434100004e200000444f0000444900003d
:10417000524f00004d0a0000004d0000494b000066
:10418000524f00004b4f00004e540000524f0000b1
:104190004c45000052200000564100005320000012
:1041a0004a450000204e0000415a000056410000e0
:1041b0004f0a0000005000004f5a0000495600000e
:1041c000205a00004156000052530000454e0000a6
:1041d0000a0000004e450000544100004341000029
:1041e0004e200000425200004f4a00000000000034
:1041f00000000000000000000000000000000000bf
:1042000000000000000000000000000000000000ae
:10421000000000003eff0000ff3e00000000000024
:1042200000000000000d00000d0000000000000074
:104230000004000007030000000400000703000062
:10424000000000000000000000000000000000006e
:1042500010fe0000fe10000010fe0000fe10000026
:10426000010f00000f010000010f00000f0100000e
:104270001c3e000022ff0000ff420000ce8c000028
:1042800003070000040f00000f04000007030000f4
:104290000000000006c60000f03c00000e02000016
:1042a00000040000070300000006000006000000f4
:1042b0001e3f0000e1c10000412100003f1e000040
:1042c000060f0000090900000b0c00001e1600007c
:1042d00000000000040700000300000000000000d0
:1042e00000000000000000000000000000000000ce
:1042f00000000000f8fe00000701000000000000c0
:1043000000000000000700000e0800000000000090
:104310000000000001070000fef80000000000009f
:1043200000000000080e000007010000000000006f
:1043300020a80000f870000070f80000a82000001d
:10434000000000000000000000000000000000006d
:104350002020000020fc0000fc20000020200000a5
:10436000000000000001000001000000000000004b
:10437000000000000000000000000000000000003d
:1043800000000000203c00001c00000000000000b5
:10439000202000002020000020200000202000001d
:1043a000000000000000000000000000000000000d
:1043b00000000000000000000000000000000000fd
:1043c00000000000000c00000c00000000000000d5
:1043d0000000000000c00000f03c00000f030000df
:1043e000000c00000f0300000000000000000000af
:1043f000feff00000101000001010000fffe0000bf
:10440000070f000008080000080800000f07000060
:104410000004000006ff0000ff0000000000000094
:1044200000080000080f00000f080000080000004e
:104430000203000081c10000613100001f0e000076
:104440000e0f00000908000008080000080c00001a
:10445000020300000121000021210000ffde000016
:10446000040c000008080000080800000f07000006
:10447000e0f00000988c000086ff0000ff000000c4
:104480000000000000000000080f00000f080000fe
:104490003f3f00002121000021210000e1c1000078
:1044a000040c000008080000080800000f070000c6
:1044b000fcfe00002321000021210000e0c00000dc
:1044c000070f000008080000080800000f070000a0
:1044d0000303000001810000e17900001f070000d4
:1044e00000000000000f00000f00000000000000ae
:1044f000deff00002121000021210000ffde00007e
:10450000070f000008080000080800000f0700005f
:104510001e3f00002121000021210000fffe0000bd
:104520000008000008080000080c00000703000055
:10453000000000000018000018000000000000004b
:10454000000000000006000006000000000000005f
:10455000000000000018000018000000000000002b
:1045600000000000101e00000e000000000000000f
:1045700040e00000b01800000c060000020000003f
:104580000000000001030000060c0000080000000d
:1045900000a00000a0a00000a0a00000a00000005b
:1045a000000000000000000000000000000000000b
:1045b00000020000060c000018b00000e0400000ff
:1045c000000800000c0600000301000000000000cd
:1045d0000203000001c10000e13100001f0e0000d5
:1045e00000000000000d00000d00000000000000b1
:1045f0000203000001c10000e13100001f0e0000b5
:1046000000000000000d00000d0000000000000090
:10461000f8fc00008683000083860000fcf80000a0
:104620000f0f000000000000000000000f0f00004e
:10463000ffff00002121000021210000ffde00001b
:104640000f0f000008080000080800000f07000016
:10465000fcfe000003010000010100000306000051
:10466000030700000c080000080800000c0600000a
:1046700001ff0000ff01000001030000fefc00003c
:10468000080f00000f080000080c000007030000de
:1046900001ff0000ff210000217100000303000062
:1046a000080f00000f080000080800000c0c0000b4
:1046b00001ff0000ff210000217100000303000042
:1046c000080f00000f0800000000000000000000bc
:1046d000fcfe00000301000041410000c3c60000d1
:1046e000030700000c08000008080000070f000086
:1046f000ffff00002020000020200000ffff00003e
:104700000f0f000000000000000000000f0f00006d
:104710000001000001ff0000ff0100000100000097
:1047200000080000080f00000f080000080000004b
:10473000000000000000000001ff0000ff01000079
:10474000060e000008080000080f00000700000027
:1047500001ff0000ff700000d88c0000070300007c
:10476000080f00000f000000000100000f0e000005
:1047700001ff0000ff010000000000000000000039
:10478000080f00000f080000080800000c0c0000d3
:10479000ffff00000c780000780c0000ffff000015
:1047a0000f0f000000000000000000000f0f0000cd
:1047b000ffff00001c38000070e00000ffff000059
:1047c0000f0f000000000000000000000f0f0000ad
:1047d000feff00000101000001010000fffe0000db
:1047e000070f000008080000080800000f0700007d
:1047f00001ff0000ff210000212100003f1e0000fa
:10480000080f00000f08000000000000000000007a
:10481000feff00000101000001010000fffe00009a
:10482000070f0000080e00001c3800002f070000d2
:1048300001ff0000ff21000021610000ff9e000039
:10484000080f00000f080000000000000f0f00001c
:104850000e1f00003121000021610000c78600000a
:10486000060e000008080000080800000f070000fe
:104870000303000001ff0000ff010000030300002c
:1048800000000000080f00000f08000000000000fa
:10489000ffff00000000000000000000ffff00001c
:1048a000070f000008080000080800000f070000bc
:1048b000ffff00000000000000000000ffff0000fc
:1048c00001030000060c00000c06000003010000bc
:1048d000ffff000000e00000e0000000ffff00001c
:1048e000010f00000e030000030e00000f01000086
:1048f000070f000098f00000f09800000f0700007c
:104900000e0f000001000000000100000f0e00006b
:104910000f1f000030e00000e03000001f0f00001b
:1049200000000000080f00000f0800000000000059
:1049300003830000c1610000311900000f0700006f
:104940000f0f000008080000080800000c0c000011
:1049500000000000ffff0000010100000000000057
:10496000000000000f0f0000080800000000000019
:1049700055aa000055aa000055aa000055aa00003b
:1049800055aa000055aa000055aa000055aa00002b
:104990000000000001010000ffff00000000000017
:1049a00000000000080800000f0f000000000000d9
:1049b000080c000006030000030600000c080000bd
:1049c00000000000000000000000000000000000e7
:1049d00000000000000000000000000000000000d7
:1049e0001010000010100000101000001010000047
:1049f00000000000080f0000070000000000000099
:104a000000000000000000000000000000000000a6
:104a1000009000009090000090f00000e000000086
:104a2000070f000008080000080700000f0800003a
:104a300001ff0000ff10000010300000e0c0000087
:104a4000080f000007080000080800000f0700001a
:104a5000e0f00000101000001010000030200000f6
:104a6000070f000008080000080800000c04000000
:104a7000c0e000003010000011ff0000ff00000047
:104a8000070f000008080000080700000f080000da
:104a9000e0f000009090000090900000f0e0000036
:104aa000070f000008080000080800000c040000c0
:104ab00000100000feff00001111000003020000c2
:104ac000000800000f0f00000800000000000000b8
:104ad000e0f000001010000010e00000f0100000f6
:104ae000276f000048480000487f00003f0000009a
:104af00001ff0000ff20000010100000f0e00000a7
:104b0000080f00000f000000000000000f0f000061
:104b10000010000010f60000f60000000000000089
:104b200000080000080f00000f0800000800000047
:104b30000000000010100000f6f600000000000069
:104b400030600000404000007f3f00000000000097
:104b500001ff0000ffc00000c06000003010000036
:104b6000080f00000f000000010300000e0c000001
:104b70000001000001ff0000ff0000000000000035
:104b800000080000080f00000f08000008000000e7
:104b9000f0f0000030e00000e0300000f0e0000045
:104ba0000f0f000000070000070000000f0f0000bb
:104bb00010f00000e010000010100000f0e0000015
:104bc000000f00000f000000000000000f0f0000a9
:104bd000e0f000001010000010100000f0e00000f5
:104be000070f000008080000080800000f07000079
:104bf00010f00000e010000010100000f0e00000d5
:104c0000407f00007f480000080800000f070000f8
:104c1000e0f000001010000010e00000f0100000b4
:104c2000070f000008080000487f00007f400000d8
:104c300010f00000e0100000101000003020000014
:104c4000000f00000f000000000000000000000046
:104c500060f00000909000009010000030200000f4
:104c6000040c000008080000090900000f060000fd
:104c700010100000feff00001010000000000000f7
:104c800000000000070f0000080c000004000000f6
:104c9000f0f000000000000000f00000f000000054
:104ca000070f000008080000080700000f080000b8
:104cb000f0f000000000000000000000f0f0000034
:104cc00001030000060c00000c06000003010000b8
:104cd000f0f000000080000080000000f0f0000014
:104ce000070f00000c070000070c00000f07000072
:104cf0001030000060c00000c060000030100000f4
:104d0000080c000006030000030600000c08000069
:104d1000f0f000000000000000000000f0f00000d3
:104d2000474f000048480000486800003f1f00004f
:104d30003030000010900000d070000030100000f3
:104d40000c0e00000b090000080800000c0c00000d
:104d5000000000000000000000000000005f0000f4
:104d60000000000000070000000700000014000021
:104d70007f1400007f140000242a00007f2a000016
:104d8000122300001308000064620000364900008e
:104d90005522000050000000050300000000000044
:104da000001c000022410000000000004122000021
:104db0001c000000082a00001c2a0000080800004f
:104dc000083e00000808000000500000300000000d
:104dd000000800000808000008080000003000007b
:104de0003000000000200000100800000402000055
:104df0003e510000494500003e000000427f000097
:104e000040000000426100005149000046210000be
:104e1000414500004b31000018140000127f0000d3
:104e20001027000045450000453900003c4a0000bd
:104e3000494900003001000071090000050300002d
:104e40003649000049490000360600004949000083
:104e5000291e00000036000036000000000000009f
:104e60005636000000000000000800001422000078
:104e7000411400001414000014140000412200002a
:104e800014080000000200000151000009060000a3
:104e900032490000794100003e7e000011110000ff
:104ea000117e00007f49000049490000363e0000a5
:104eb00041410000412200007f41000041220000ea
:104ec0001c7f000049490000494100007f090000a3
:104ed00009010000013e0000414100005132000084
:104ee0007f080000080800007f000000417f0000ec
:104ef0004100000020400000413f0000017f000011
:104f000008140000224100007f40000040400000e3
:104f1000407f000002040000027f00007f040000c8
:104f2000081000007f3e000041410000413e0000ab
:104f30007f09000009090000063e00004151000001
:104f4000215e00007f09000019290000464600008c
:104f50004949000049310000010100007f010000c3
:104f6000013f000040400000403f00001f200000c3
:104f7000402000001f7f000020180000207f00005c
:104f800063140000081400006303000004780000ac
:104f90000403000061510000494500004300000087
:104fa000007f0000414100000204000008100000e2
:104fb00020410000417f00000000000004020000ca
:104fc000010200000440000040400000404000009a
:104fd0000001000002040000002000005454000002
:104fe000547800007f480000444400003838000036
:104ff00044440000442000003844000044480000bd
:105000007f3800005454000054180000087e00004f
:10501000090100000208000014540000543c000084
:105020007f0800000404000078000000447d0000b8
:105030004000000020400000443d0000000000004f
:105040007f10000028440000004100007f40000065
:10505000007c000004180000047800007c080000b8
:105060000404000078380000444400004438000084
:105070007c14000014140000080800001414000040
:10508000187c00007c0800000404000008480000b0
:105090005454000054200000043f0000444000002d
:1050a000203c000040400000207c00001c2000004c
:1050b000402000001c3c000040300000403c00004c
:1050c0004428000010280000440c0000505000004c
:1050d000503c000044640000544c000044000000b8
:1050e0000836000041000000000000007f000000c2
:1050f0000000000041360000080000000808000021
:105100002a1c0000080800001c2a000008080000f3
:10511000000000000000000000000000000000008f
:10512000000000000000000000000000000000007f
:10513000000000000000000000000000000000006f
:10514000000000000000000000000000000000005f
:020000040000fa
:105550000000fa00cda2a900cdc2a9000080fa0087
:10556000000006000200fa00004f78001e4078009c
:105570000004e00004003200101780000050a0007a
:105580001017880003003700101780000050a1009a
:10559000101788000080fa00000006000200fa00e0
:1055a000004f78001e4078000004e0000400320044
:1055b000101780000040a00010178800030037007b
:1055c000101780000040a100101788000080fa002a
:1055d000000006000200fa00004f78001e4078002c
:1055e0000004e00004003200101780000010a0004a
:1055f0001017880003003700101780000010a1006a
:10560000101788000080fa00000006000200fa006f
:10561000004f78001e4078000004e00004003200d3
:10562000101780000000a00010178800030037004a
:10563000101780000000a100101788000080fa00f9
:10564000000006000200fa00004f78001e407800bb
:105650000004e00004003200501680000050a0005a
:105660005016880003003700501680000050a1003b
:10567000501688000080fa00000006000200fa00c0
:10568000004f78001e4078000004e0000400320063
:10569000501680000040a00050168800030037001c
:1056a000501680000040a100501688000080fa00cb
:1056b000000006000000fa00dea2a900de82a900b8
:1056c000de22a900de02a900a8a2a800c6a2a900a5
:1056d000a882a800c682a900a802a800c602a90044
:1056e000a822a800c622a900a842a800c642a90074
:1056f000a862a800c662a900d202a900d222a9000d
:10570000d242a900d262a9000080fa00000006007f
:105710000200fa00004f78001e4078000004e0000c
:1057200008003a00d202a900d222a900d242a90060
:10573000d262a900c662a900c642a900c622a90079
:10574000c602a9001e407800e14f500008003a0050
:10575000d202a800d222a800d242a800d262a80099
:10576000c662a800c642a800c622a800c602a800b9
:105770000080fa00000006000400fa008e80e800b5
:10578000804878000e80e800104f7800b116800045
:1057900000ff2f0000806000b016880051168000c6
:1057a00000ff2f0000806000501688001e41780026
:1057b000ef4061000e00e800014878000e00e800ac
:1057c000104078000080fb005116800000807000bf
:1057d000501688001e80fb004400de00004f780059
:1057e0001e80fb00b116800000807000b01688009b
:1057f0000080fa00000006000200fa00a0168000f7
:10580000004f78001e4078004400dd00004f780013
:10581000411680000e00e800014878000e00e80004
:1058200010407800ef4060000e00e800014878006a
:105830000e00e800104078009e4040000e00e80096
:10584000014878000e00e800104078000080fa005f
:10585000000006000000fa0010c0b3004fff070070
:105860000040eb004dff07000080fa00000006003a
:105870000200fa00004f78000040eb0063ff0700d1
:105880000040eb0053ff07001e407800baff0700fe
:10589000f0ff07000080fa00000006000400fa0094
:1058a0008e80e800800878000000eb00000f780090
:1058b000010037001e0fe8000e80e800100078009d
:1058c0009e007800808f5000faff39000080fa00b7
:1058d000000006000200fa000040eb004bff07004a
:1058e00010c0b3003bff070010c0b30088ff0700e3
:1058f00010c0b30029ff0700bfff0700004f78006a
:105900000040eb0025ff070002003700baff070048
:10591000004f78001e4078000004e000fbff3500d7
:105920000080fa00000006000200fa00004f780034
:10593000f0c3b3009e40780080cf500008003e00c6
:1059400010c0b300340007001e4078000064a000bf
:10595000c7ff070010c0b30022e8b7000a003700f5
:105960001e4078000004e000070035000040eb0016
:105970002900070000ccb3001e4040000064a000d6
:10598000bbff07002268ef001e4178000182200063
:10599000824878000080fa00000006000200fa0049
:1059a000004f78001e407800e74f500006003e0090
:1059b00080cbb3001e407000adff07001e41780091
:1059c00011822000824878000080fa000000060062
:1059d0000200fa00004f78000e00e800014878004d
:1059e0001e407800d0ff07000e00e800104078004d
:1059f000eaff07000080fa00000006000200fa003b
:105a0000004f780000ccb3001e40700098ff0700e4
:105a10000080fa00000006000200fa00004f780043
:105a20000040eb00f9fe07001e4078000004e00093
:105a30000a003a000040eb00e6fe070010c0b30089
:105a40000eff07000040eb00fefe0700f0c3b300ae
:105a500087ff07002268ef000a0037000040eb00d4
:105a6000dcfe07000040eb0004ff070010c0b3009d
:105a7000f4fe0700f0c3b3007dff070010c0b300c1
:105a800022e8b7000080fa00000006000200fa00d9
:105a900010c0b3001eff070010c0b300dbfe0700fc
:105aa00010c0b300cbfe07006aff070010c0b300b0
:105ab000bafe070050ff0700004f78000040eb00df
:105ac000b6fe07000040eb0011ff07000040eb00ae
:105ad000cefe07000040eb00befe07001e4078002f
:105ae0000080fa00000006000000fa000040eb0011
:105af00021ff07000040eb00c4fe07000040eb0060
:105b0000b4fe07000040eb00a4fe07000040eb00dd
:105b1000dafe07000040eb00cafe070010c0b30029
:105b200090fe0700a00020005cff07000040eb0093
:105b30008cfe0700a000200058ff070010c0b30033
:105b400088fe070010c0b300b3ff0700e0c3b30036
:105b500047ff070000ccb30045ff070080cbb30030
:105b600043ff070000c4b30041ff0700f0c3b300c8
:105b70003fff07000040eb00a7ff0700e0c3b300b2
:105b80003bff070000ccb30039ff070080cbb30018
:105b900037ff070000c4b30035ff0700f0c3b300b0
:105ba00033ff07000080fa00000006000200fa0040
:105bb000004f780010c0b30094fe07000040eb00d7
:105bc00084fe07001e407800ebfe070021ff07005f
:105bd0000080fa00000006000200fa008040eb009e
:105be0000e00e80001487800210037000e00e800b0
:105bf000904078000040eb0075ff07000040eb008c
:105c0000004f7800030037000040eb00e7ff07007b
:105c10001e4fe800f0c3b3009e40780080cf5000d4
:105c2000f9ff36000e00e8009040780000c4b30091
:105c300067ff07000040eb00004f780003003700cb
:105c40000040eb00d9ff07001e4fe800f0c3b3008f
:105c50009e40780080cf5000f9ff36000e00e8002b
:105c6000104078008040e8000e00e800014878000d
:105c70000e00e80010407800e74f5000dbff3600d0
:105c80000080fa00000006000200fa008040eb00ed
:105c90000e00e80001487800210037000e00e800ff
:105ca000904078000040eb0049ff07000040eb0007
:105cb000004f78000300370000c0eb00bbff070077
:105cc0001e4fe800f0c3b3009e40780080cf500024
:105cd000f9ff36000e00e8009040780000c4b300e1
:105ce0003bff07000040eb00004f78000300370047
:105cf00000c0eb00adff07001e4fe800f0c3b3008b
:105d00009e40780080cf5000f9ff36000e00e8007a
:105d1000104078008040e8000e00e800014878005c
:105d20000e00e80010407800e74f5000dbff36001f
:105d30000080fa00000006000400fa008e80e800ef
:105d4000800878008040eb000e00e80001487800f1
:105d5000340037000e00e800904078000040eb006f
:105d60001bff07000040eb00004f78000c003700dd
:105d70000e00e800104078000080fb00c700dd0046
:105d80001e80fb00008040008e80e80091007800bb
:105d9000008040001040780084ff07001e4fe8009c
:105da000f0c3b3009e40780080cf5000f0ff360073
:105db0000e00e8009040780000c4b30004ff070024
:105dc0000040eb00004f78000d0037000e00e800a7
:105dd000104078000080fb00c700dd001e80fb0043
:105de000008040000004b0008e80e8009100780040
:105df00000804000104078006cff07001e4fe80054
:105e0000f0c3b3009e40780080cf5000efff360013
:105e10000e00e800104078008040e8000e00e80026
:105e2000014878000e00e80010407800e74f50006d
:105e3000c8ff36000080fa00000006000400fa00e7
:105e40000e81e800004978006300470001487800af
:105e50000040eb00004f78006300470010407800de
:105e60000080fb004300de000040780080407800a6
:105e70000e80e80010407800d5fe070003ff070001
:105e8000004f780063004700104078000080fb005e
:105e90004300de0000407800804078000e80e8007b
:105ea00010407800cafe07006300470010407800e9
:105eb0000080fb0067006000110020000008dd008a
:105ec000804078001e40780000c0700037ff070057
:105ed0000080fa00000006000400fa000e81e800cd
:105ee0000049780063004700014878000040eb005b
:105ef000004f780063004700104078000080fb00ee
:105f00004300de0000407800804078000e80e8000a
:105f100010407800aefe0700dcfe0700004f78005e
:105f200063004700104078000080fb004300de0063
:105f300000407800804078000e80e8001040780033
:105f4000a3fe070063004700104078000080fb00bc
:105f500067006000110020000008dd0000407800ac
:105f600080c0ea001e40780000c060000fff0700fc
:105f70000080fa00000006000c00fa00e80147006b
:105f80008049780069004700014878006a004700ae
:105f9000024878000000eb00000f78008000eb0062
:105fa0000e80e800010878008000eb0064004700e4
:105fb00001087800690047009040780068004700b9
:105fc0001040780080c0500066004700014878000b
:105fd0006a004700104078008080fb000e80e800d7
:105fe000010878006a004700104078008080fb00bc
:105ff000e0ff2f000088b90000007800630f400028
:106000008f0037000e80e800100078008040780094
:10601000690047001040780080c0400064004700dd
:1060200010007800004178006800470010407800b8
:106030000040410081ff07000e80e800100078005a
:1060400000407800e90047009140780080c050008f
:1060500064004700100078000041780068004700a5
:10606000104078000040410074ff07000e80e800f7
:1060700010007800804078006900470010407800e8
:1060800080c04000640047001000780000407800a5
:1060900068014700124178000040510067ff070087
:1060a0000e80e8001000780000407800e90047000a
:1060b0009140780080c050006400470010007800d4
:1060c000004078006801470012417800004051000c
:1060d0005aff0700640047001000780080407800f5
:1060e000690047001040780080c040000e80e80042
:1060f00010007800004178006900470010407800e7
:106100000041410066004700104078000040510007
:106110004aff070064004700100078000040780044
:10612000e90047009140780080c050000e80e800f0
:1061300010007800004178006900470010407800a6
:1061400000414100660047001040780000405100c7
:106150003aff070064004700100078008040780094
:10616000690047001040780080c040000e80e800c1
:106170001000780000407800690147001241780063
:106180000041510066004700104078000040510077
:106190002aff0700640047001000780000407800e4
:1061a000e90047009140780080c050000e80e80070
:1061b0001000780000407800690147001241780023
:1061c0000041510066004700104078000040510037
:1061d0001aff07001e0078000000e00006003d00e6
:1061e00064004700100078004200dd0066004000b7
:1061f0001e0f40000d00370064004700900078003b
:106200000e80e80010007800008050004200dd00a1
:106210006a0040001e0f40000e80e8001000780069
:106220008000e9000e80e800010878006400470063
:10623000100078008000e800640047000108780042
:1062400064004700900078000e80e800100078009d
:10625000808f50006bff34000080fa0000000600c1
:106260000600fa000e82e800004a7800630047004a
:106270000148780064004700024878006500470044
:10628000034878000040eb00004f78000040eb002e
:10629000004f78000d0037000e80e80010407800b5
:1062a0001e404000e300470091407800e3fe0700f5
:1062b0000e80e800104078001e404000e5004700d6
:1062c00091407800ddfe07001e4fe8009e80fb0035
:1062d00064004700104078000081fb000e80e80059
:1062e000104078000080fb00000051000000e80032
:1062f000808f5000e8ff35000040eb00004f780031
:106300000f00370063004700104078001e40400037
:10631000804078000e80e80010407800c7fe07003b
:1063200063004700104078001e4040008040780025
:106330006400470010407800c0fe07001e4fe800d0
:106340009e80fb0065004700104078000081fb0044
:1063500063004700104078000080fb0000005100ff
:106360000000e800808f5000e6ff35000080fa0052
:10637000000006000400fa008e80e80080487800e3
:1063800020c8bf000080fb00e5004000f0072000af
:10639000808f50000800340021c8bf000040e80092
:1063a00021e8b70021c8bf00e74f500001003600c8
:1063b0002168ef002068ef001182200091407800f2
:1063c00020c8bf0082fd07000040eb00004f7800ae
:1063d000150037000e80e800104078000000fb0038
:1063e0006500b9000000780001f62f0080804000b1
:1063f0001e80fb0000804000816a2a00008040006f
:1064000010407800e9fd070020c8bf000040e80008
:1064100020e8b700118220009140780020c8bf001a
:106420006bfd07001e4fe8001e407800e44f50004f
:10643000e8ff36000040eb00dcfd070020c8bf008d
:106440000040e80020e8b7000080fa0000000600e5
:106450000400fa008e80e8008048780020c8bf0061
:106460000080fb00e8004000f0072000808f500013
:106470000b00340021c8bf000040e80021e8b7004d
:1064800021c8bf000040e80021e8b70021c8bf00d4
:10649000e74f5000010036002168ef002068ef0050
:1064a0000040eb00004f78004200370011822000ce
:1064b0009140780020c8bf0045fd07000e80e8002d
:1064c000104078000000fb000002b100c400dd00b5
:1064d0001e80fb0000804000810f2a0000804000e9
:1064e00010407800b1fd070021c8bf000040e8005f
:1064f0008040780080cbb30000c07000dcfc070057
:106500000182200091407800f0c3b30080cf50009a
:1065100008003e0010c0b3003ffd070020c8bf00c8
:106520000064a000d2fc070010c0b30022e8b7004e
:106530000c00370020c8bf000004e000090035004f
:106540000040eb0034fd07000182200091407800fc
:1065500000ccb30000c040000064a000c4fc0700f1
:106560002268ef000e80e800104078000000fb0079
:106570000002b100c400dd001e80fb00008040006e
:1065800068004000810f2a00008040001040780021
:1065900086fd070020c8bf000040e80020e8b700e3
:1065a000118220009140780020c8bf0008fd07003c
:1065b0001e4fe8001e407800e74f5000bbff36003a
:1065c0000080fa00000006000200fa00000f7800c8
:1065d000040037001e0078001040780065ff0700b7
:1065e0001e0fe8001e007800104078000004e00054
:1065f000f8ff3a000080fa00000006000600fa00ea
:10660000e4004700804878006400470010407800ac
:106610000080fb00cf80de00c3e707006266260033
:1066200063fa2300dae70700a4e707000e81e80019
:10663000004978000040eb00004f78001b00370055
:106640000e00e8008e80e800114878000b0037004b
:106650000e00e800904078001e407800f7fd07002b
:106660000e00e800904078000e80e80010407800ae
:1066700080c040000e00e800014878000e00e800ed
:10668000104078008080fb000e80e8001040780009
:106690000080fb000204200000005100808f5000a9
:1066a000ebff35009e40780063cf4000e0c7b300a9
:1066b0009e40780080cf5000e1ff36006400470024
:1066c0001040780000cfe900150037008040eb0053
:1066d0000e00e80001487800090037000e00e800cd
:1066e000904078001e407800d4fd07000e00e800be
:1066f0001040780080c0e8000e00e80001487800f3
:106700000e00e80090407800e0c3b30080cf500056
:10671000f2ff360064004700104078001e4f400032
:10672000b0c7b3009e40780080cf5000e7ff36002e
:106730000080fa00000006000600fa000e82e80061
:10674000004a780063004700014878006400470071
:106750000248780065004700034878000040eb00dd
:10676000004f78000040eb00004f78000d0037002c
:106770000e80e800104078001e404000e300470013
:1067800091407800d4fd07000e80e80010407800aa
:106790001e404000e500470091407800cefd070014
:1067a0001e4fe8009e80fb00640047001040780008
:1067b0000081fb000e80e800104078000080fb00a4
:1067c000000051000000e800808f5000e8ff350015
:1067d0000040eb00004f78000f00370063004700d7
:1067e000104078001e404000804078000e80e80095
:1067f00010407800b8fd07006300470010407800a3
:106800001e4040008040780064004700104078003f
:10681000b1fd07001e4fe8009e80fb0065004700a9
:10682000104078000081fb006300470010407800b2
:106830000080fb00000051000000e800808f500045
:10684000e6ff35000080fa00000006000200fa00b2
:10685000000f78000228ef0011e1a80000000000fe
:10686000104080009e0f5000fdff350011e1a9008f
:106870000080fa00000006000200fa00000f780015
:106880000428ef0005e1a80000000000204080007f
:106890009e0f5000fdff350005e1a9000080fa00c1
:1068a000000006000400fa00000f78000e80e800e7
:1068b00001087800c162a900a962a800c762a80007
:1068c000a982a800c782a900c8020700d002070059
:1068d00078fb07001efb070083fc07008a02070005
:1068e000900207000e020700bbfc07000028ef0023
