:020000040000fa
:080000000001040000000000f3
:020000040000fa
:040008001a020000d8
:020000040000fa
:04000c001a020000d4
:020000040000fa
:040010001a020000d0
:020000040000fa
:040014001a020000cc
:020000040000fa
:040018001a020000c8
:020000040000fa
:04001c001a020000c4
:020000040000fa
:040020001a020000c0
:020000040000fa
:040024001a020000bc
:020000040000fa
:040028001a020000b8
:020000040000fa
:04002c001a020000b4
:020000040000fa
:040030001a020000b0
:020000040000fa
:040034001a020000ac
:020000040000fa
:040038001a020000a8
:020000040000fa
:04003c001a020000a4
:020000040000fa
:040040001a020000a0
:020000040000fa
:040044001a0200009c
:020000040000fa
:040048001a02000098
:020000040000fa
:04004c00c8010000e7
:020000040000fa
:040050001a02000090
:020000040000fa
:040054001a0200008c
:020000040000fa
:040058001a02000088
:020000040000fa
:04005c001a02000084
:020000040000fa
:040060001a02000080
:020000040000fa
:040064001a0200007c
:020000040000fa
:040068001a02000078
:020000040000fa
:04006c001a02000074
:020000040000fa
:040070001a02000070
:020000040000fa
:040074001a0200006c
:020000040000fa
:040078001a02000068
:020000040000fa
:04007c001a02000064
:020000040000fa
:040080001a02000060
:020000040000fa
:040084001a0200005c
:020000040000fa
:04008800e201000091
:020000040000fa
:04008c001a02000054
:020000040000fa
:040090001a02000050
:020000040000fa
:040094001a0200004c
:020000040000fa
:040098001a02000048
:020000040000fa
:04009c001a02000044
:020000040000fa
:0400a0001a02000040
:020000040000fa
:0400a4001a0200003c
:020000040000fa
:0400a8001a02000038
:020000040000fa
:0400ac001a02000034
:020000040000fa
:0400b0001a02000030
:020000040000fa
:0400b4001a0200002c
:020000040000fa
:0400b8001a02000028
:020000040000fa
:0400bc001a02000024
:020000040000fa
:0400c0001a02000020
:020000040000fa
:0400c4001a0200001c
:020000040000fa
:0400c8001a02000018
:020000040000fa
:0400cc001a02000014
:020000040000fa
:0400d0001a02000010
:020000040000fa
:0400d4001a0200000c
:020000040000fa
:0400d8001a02000008
:020000040000fa
:040108001a020000d7
:020000040000fa
:04010c001a020000d3
:020000040000fa
:040110001a020000cf
:020000040000fa
:040114001a020000cb
:020000040000fa
:040118001a020000c7
:020000040000fa
:04011c001a020000c3
:020000040000fa
:040120001a020000bf
:020000040000fa
:040124001a020000bb
:020000040000fa
:040128001a020000b7
:020000040000fa
:04012c001a020000b3
:020000040000fa
:040130001a020000af
:020000040000fa
:040134001a020000ab
:020000040000fa
:040138001a020000a7
:020000040000fa
:04013c001a020000a3
:020000040000fa
:040140001a0200009f
:020000040000fa
:040144001a0200009b
:020000040000fa
:040148001a02000097
:020000040000fa
:04014c00c8010000e6
:020000040000fa
:040150001a0200008f
:020000040000fa
:040154001a0200008b
:020000040000fa
:040158001a02000087
:020000040000fa
:04015c001a02000083
:020000040000fa
:040160001a0200007f
:020000040000fa
:040164001a0200007b
:020000040000fa
:040168001a02000077
:020000040000fa
:04016c001a02000073
:020000040000fa
:040170001a0200006f
:020000040000fa
:040174001a0200006b
:020000040000fa
:040178001a02000067
:020000040000fa
:04017c001a02000063
:020000040000fa
:040180001a0200005f
:020000040000fa
:040184001a0200005b
:020000040000fa
:04018800e201000090
:020000040000fa
:04018c001a02000053
:020000040000fa
:040190001a0200004f
:020000040000fa
:040194001a0200004b
:020000040000fa
:040198001a02000047
:020000040000fa
:04019c001a02000043
:020000040000fa
:0401a0001a0200003f
:020000040000fa
:0401a4001a0200003b
:020000040000fa
:0401a8001a02000037
:020000040000fa
:0401ac001a02000033
:020000040000fa
:0401b0001a0200002f
:020000040000fa
:0401b4001a0200002b
:020000040000fa
:0401b8001a02000027
:020000040000fa
:0401bc001a02000023
:020000040000fa
:0401c0001a0200001f
:020000040000fa
:0401c4001a0200001b
:020000040000fa
:0401c8001a02000017
:020000040000fa
:0401cc001a02000013
:020000040000fa
:0401d0001a0200000f
:020000040000fa
:0401d4001a0200000b
:020000040000fa
:0401d8001a02000007
:020000040000fa
:10020000ef8020000eff20000e018800000000009b
:10021000000020000000e000020032000001200089
:100220002002880014000700840007000000e0009e
:1002300003003a00a0512000010020000200370016
:100240000000200001002000810f7000010032003a
:1002500014000700000020000000e000020032004f
:1002600000000200000000009604020000000000f0
:100270000040da000000fe004440a900e001200038
:100280000000e0000300320000002000a001880010
:100290004440a800000006008a1f78008b1f7800e9
:1002a0000000060091018800800478000000eb0047
:1002b0001a003700e284440032a0b4009905ba0065
:1002c000e284440032a0b4009906ba00e2844400fb
:1002d00032a0b4000006eb00476fde00fd07b2005d
:1002e000636ce10003003a00ebff07000000eb0045
:1002f0000a003700606ce10004003a00005deb008a
:100300008b05e900fdff3e00040037006168e10055
:10031000010032000086eb000b00070019c7ba008d
:100320001905ba000e04e00003003a000a00e000dc
:10033000e0ff3a0000000600fe07b2009e018800c0
:100340008a047800f5ff3700395dba008b05e900b3
:100350000c003200295dba008b05e900080032006c
:100360000c00e00003003a00e284440032a0b40034
:10037000f5ff370019ddba008b05e900faff3a00f6
:100380008904e800e184440032a0b40000000600c3
:10039000801f78003400f80000002000a0018800d1
:1003a0000000fa00901080000040780000e8b700dc
:1003b0008520a9000080fa003400f9004f00780081
:1003c00000400600809fbe00821f78003400f800c5
:1003d00000002000a00188000000fa00e01080006a
:1003e0000040780001e8b7006240800001c8bf000b
:1003f00080407800608020000000410001487800c3
:10040000604080000000e80060408800604080009c
:10041000e50f500001003a000c28ef008700a9000a
:100420000080fa003400f9004f0178004f00be0050
:10043000004006000040da000000fe000000050059
:020000040000fa
:10044000496e00006974000069630000696a000079
:10045000616c0000697a000061630000696a000055
:10046000612000007a610000767200007365000070
:0c0470006e610000210a00000000000086
:020000040000fa
:10047c000000fa0000042000a01088000d42a90022
:10048c008d20a80071108000c0ff2f00008060003c
:10049c00701088000de2a8000f42a8000080fa003e
:1004ac00000006000200fa00000f780000000000b7
:1004bc007110800000102000008060000000e0003f
:1004cc00fbff32006010800066006000e60f5000f9
:1004dc0003003a009e00780081108800030037006a
:1004ec00f00f20001e006000801088000080fa00d1
:1004fc00000006000000fa00881f78000004780055
:10050c000e003700184078000000fb00e5ff0700e4
:10051c0018407800ed4f500002003a00a000200077
:10052c00e0ff070018407800ea4f500002003a0044
:10053c00d0002000dbff07000804e800184078001a
:10054c000004e000efff3a004f0478000080fa004e
:10055c00000006000400fa008e80e8008008780095
:10056c000e80e80010007800c300de00500c220062
:10057c000008b8004408de00004f78001e80fb0025
:10058c000003b000c7ff07009e80fb0080c12f0056
:10059c000088b900000078008e80e8009100780097
:1005ac00808040000e80e800010878000e80e80092
:1005bc0010007800c200de00b04721000008b8002f
:1005cc000100d100004f78001e80fb000003b0003a
:1005dc00b4ff07009e80fb00c0f92f000088b90013
:1005ec00000078008e80e800910078008080400048
:1005fc000e80e800010878000e80e800900078007a
:10060c00d0cc2c000008b8004308de00004f780066
:10061c001e80fb000003b000a2ff07009e80fb00c1
:10062c0060ff2f000088b900000078008e80e80081
:10063c0091007800808040000e80e800010878006e
:10064c000e80e800100078000003b00095ff070052
:10065c000080fa00000006000000fa0000042000f0
:10066c00f01088008f00a800c1108000c0ff2f0080
:10067c0000806000c010880017e2a8001942a80092
:10068c000080fa00000006000200fa00000f78005b
:10069c0000000000c11080000010200000806000ed
:1006ac000000e000fbff3200b0108000660060002c
:1006bc00e60f500003003a009e007800d11088002d
:1006cc0003003700f00f20001e006000d0108800df
:1006dc000080fa00000006000000fa00881f780075
:1006ec00000478000e003700184078000000fb0072
:1006fc00e5ff070018407800ed4f500002003a006b
:10070c00a0002000e0ff070018407800ea4f5000de
:10071c0002003a00d0002000dbff07000804e800cc
:10072c00184078000004e000efff3a004f04780016
:10073c000080fa00000006000400fa008e80e80039
:10074c00800878000e80e80010007800c300de00fe
:10075c00500c22000008b8004408de00004f78005e
:10076c001e80fb000003b000c7ff07009e80fb004b
:10077c0080c12f000088b900000078008e80e8004e
:10078c0091007800808040000e80e800010878001d
:10079c000e80e80010007800c200de00b047210097
:1007ac000008b8000100d100004f78001e80fb004b
:1007bc000003b000b4ff07009e80fb00c0f92f00bf
:1007cc000088b900000078008e80e8009100780065
:1007dc00808040000e80e800010878000e80e80060
:1007ec0090007800d0cc2c000008b8004308de0044
:1007fc00004f78001e80fb000003b000a2ff070032
:10080c009e80fb0060ff2f000088b900000078007c
:10081c008e80e80091007800808040000e80e80017
:10082c00010878000e80e800100078000003b0008a
:10083c0095ff07000080fa00000006000000fa0097
:10084c00a902a900a922a900c702a800c722a800d2
:10085c000080fa00000006000000fa00a1a2a90026
:10086c0001158000f0cf2f0000806000001588007b
:10087c0001158000000e200001007000001588009a
:10088c00a022a8001115800000002e0001007000ad
:10089c0010158800a342a8001115800030fc2f0011
:1008ac0000806000c000b30010158800a222a900cf
:1008bc00a202a9002115800000f0210001007000a7
:1008cc0020158800a4e2a8002115800000fc2f0050
:1008dc0000806000f001b30020158800a782a900f9
:1008ec00a682a9003115800000ff2f000080600057
:1008fc003015880031158000f00f2f00008060004b
:10090c00301588000078200050158800a042a800ff
:10091c008560a8008d60a8000080fa000000060029
:10092c000000fa00d2fe07004bff0700002228004f
:10093c00f0fe07000022280067ff07000228ef00e6
:10094c000c0037000428ef00030037002040800023
:10095c000000e8002040880021408000b0122000f8
:10096c00808f5000f9ff3600104080000000e80036
:10097c001040880011408000b02b2000808f500068
:10098c00f0ff36006080200053ff07000228ef00c4
:10099c000c0037000428ef000300370020408000d3
:1009ac000000e8002040880021408000b0122000a8
:1009bc00808f5000f9ff3600104080000000e800e6
:1009cc001040880011408000b02b2000808f500018
:1009dc00f0ff3600d9ff37000000fa000021ef00cd
:1009ec00a0002000100888000421a9000481a9009f
:1009fc0004a1a9008460a9008c60a8000080fa0002
:100a0c00000006000000fa000621ef000071220031
:100a1c00600888001021a90084c0a9008cc0a8001f
:080a2c000080fa000000060042
:020000040000fa
:100a3400000800000e00000000000000000000009c
:020000040000fa
:0200000401f009
:040000000587000070
:020000040000fa
:0200000401f009
:040004003f000000b9
:00000001FF
