:020000040000fa
:080000000001040000000000f3
:020000040000fa
:0400080040030000b1
:020000040000fa
:04000c0040030000ad
:020000040000fa
:0400100040030000a9
:020000040000fa
:0400140040030000a5
:020000040000fa
:0400180040030000a1
:020000040000fa
:04001c00400300009d
:020000040000fa
:040020004003000099
:020000040000fa
:040024004003000095
:020000040000fa
:040028004003000091
:020000040000fa
:04002c00400300008d
:020000040000fa
:040030004003000089
:020000040000fa
:0400340010020000b6
:020000040000fa
:040038004003000081
:020000040000fa
:04003c00400300007d
:020000040000fa
:040040002402000096
:020000040000fa
:040044003a0200007c
:020000040000fa
:040048004003000071
:020000040000fa
:04004c00c8010000e7
:020000040000fa
:040050004003000069
:020000040000fa
:040054007202000034
:020000040000fa
:040058004003000061
:020000040000fa
:04005c00400300005d
:020000040000fa
:040060004003000059
:020000040000fa
:040064004003000055
:020000040000fa
:04006800e6020000ac
:020000040000fa
:04006c00400300004d
:020000040000fa
:040070004003000049
:020000040000fa
:040074004003000045
:020000040000fa
:040078004003000041
:020000040000fa
:04007c004c02000032
:020000040000fa
:040080005e0200001c
:020000040000fa
:040084008c020000ea
:020000040000fa
:04008800da01000099
:020000040000fa
:04008c00400300002d
:020000040000fa
:040090004003000029
:020000040000fa
:040094004003000025
:020000040000fa
:040098004003000021
:020000040000fa
:04009c00400300001d
:020000040000fa
:0400a0004003000019
:020000040000fa
:0400a4004003000015
:020000040000fa
:0400a8004003000011
:020000040000fa
:0400ac00400300000d
:020000040000fa
:0400b0004003000009
:020000040000fa
:0400b4004003000005
:020000040000fa
:0400b8004003000001
:020000040000fa
:0400bc0040030000fd
:020000040000fa
:0400c00040030000f9
:020000040000fa
:0400c40040030000f5
:020000040000fa
:0400c80040030000f1
:020000040000fa
:0400cc0040030000ed
:020000040000fa
:0400d00040030000e9
:020000040000fa
:0400d40040030000e5
:020000040000fa
:0400d80040030000e1
:020000040000fa
:0401080040030000b0
:020000040000fa
:04010c0040030000ac
:020000040000fa
:0401100040030000a8
:020000040000fa
:0401140040030000a4
:020000040000fa
:0401180040030000a0
:020000040000fa
:04011c00400300009c
:020000040000fa
:040120004003000098
:020000040000fa
:040124004003000094
:020000040000fa
:040128004003000090
:020000040000fa
:04012c00400300008c
:020000040000fa
:040130004003000088
:020000040000fa
:0401340010020000b5
:020000040000fa
:040138004003000080
:020000040000fa
:04013c00400300007c
:020000040000fa
:040140002402000095
:020000040000fa
:040144003a0200007b
:020000040000fa
:040148004003000070
:020000040000fa
:04014c00c8010000e6
:020000040000fa
:040150004003000068
:020000040000fa
:040154007202000033
:020000040000fa
:040158004003000060
:020000040000fa
:04015c00400300005c
:020000040000fa
:040160004003000058
:020000040000fa
:040164004003000054
:020000040000fa
:04016800e6020000ab
:020000040000fa
:04016c00400300004c
:020000040000fa
:040170004003000048
:020000040000fa
:040174004003000044
:020000040000fa
:040178004003000040
:020000040000fa
:04017c004c02000031
:020000040000fa
:040180005e0200001b
:020000040000fa
:040184008c020000e9
:020000040000fa
:04018800da01000098
:020000040000fa
:04018c00400300002c
:020000040000fa
:040190004003000028
:020000040000fa
:040194004003000024
:020000040000fa
:040198004003000020
:020000040000fa
:04019c00400300001c
:020000040000fa
:0401a0004003000018
:020000040000fa
:0401a4004003000014
:020000040000fa
:0401a8004003000010
:020000040000fa
:0401ac00400300000c
:020000040000fa
:0401b0004003000008
:020000040000fa
:0401b4004003000004
:020000040000fa
:0401b8004003000000
:020000040000fa
:0401bc0040030000fc
:020000040000fa
:0401c00040030000f8
:020000040000fa
:0401c40040030000f4
:020000040000fa
:0401c80040030000f0
:020000040000fa
:0401cc0040030000ec
:020000040000fa
:0401d00040030000e8
:020000040000fa
:0401d40040030000e4
:020000040000fa
:0401d80040030000e0
:020000040000fa
:100200000f8220000eff20000e0188000000000079
:10021000000020000000e000020032000001200089
:100220002002880014000700170107000000e0000a
:1002300003003a00c0d52000010020000200370072
:100240000000200001002000810f7000010032003a
:1002500014000700000020000000e000020032004f
:100260000000020000000000260c02000000000058
:100270000040da000000fe004440a900a001200078
:100280000000e0000300320000002000a001880010
:100290004440a800000006008a1f78008b1f7800e9
:1002a0000000060091018800800478000000eb0047
:1002b0001a003700e284440032a0b4009905ba0065
:1002c000e284440032a0b4009906ba00e2844400fb
:1002d00032a0b4000006eb00476fde00fd07b2005d
:1002e000636ce10003003a00ebff07000000eb0045
:1002f0000a003700606ce10004003a00005deb008a
:100300008b05e900fdff3e00040037006168e10055
:10031000010032000086eb000b00070019c7ba008d
:100320001905ba000e04e00003003a000a00e000dc
:10033000e0ff3a0000000600fe07b2009e018800c0
:100340008a047800f5ff3700395dba008b05e900b3
:100350000c003200295dba008b05e900080032006c
:100360000c00e00003003a00e284440032a0b40034
:10037000f5ff370019ddba008b05e900faff3a00f6
:100380008904e800e184440032a0b40000000600c3
:10039000801f78000000fa00901080000040780074
:1003a00001e8b7008520a9000080fa004f0078001e
:1003b000004006003600f800809fbe00829fbe000d
:1003c000849fbe00869fbe000000fa00e0108000ff
:1003d0000040780000e8b7008700a900d0022000a4
:1003e0003104070000c8bf000000fb002e04070016
:1003f000300220002c0407001822a9001842a9008e
:100400001862a9000080fa004f03be004f02be0030
:100410004f01be004f00be003600f900004006004c
:10042000801f78000000fa000021ef0020408000cb
:100430000000e800204088008460a9000080fa00e5
:100440004f007800004006003400f800881f780054
:1004500008002000a80188004f0478000000fa007e
:100460000621ef0084c0a9000080fa003400f900e2
:1004700000400600801f78000000fa0084e0a90018
:1004800010c0b3000ce8b700d502a9000080fa0044
:100490004f00780000400600801f78000000fa003e
:1004a00086a0a90010c0b3000de8b700d522a900ae
:1004b0000080fa004f00780000400600801f78009e
:1004c0000000fa001821ef00104080000000e80052
:1004d0001040880086c0a9000080fa004f00780014
:1004e00000400600801f78000000fa000014800021
:1004f00030408800101480004040880020148000a4
:1005000050408800a1e2a9008560a9000080fa009f
:100510004f007800004006003600f800809fbe00c3
:10052000829fbe00849fbe00869fbe000000fa002e
:10053000a116800000202000008060000000e00084
:10054000050032008240a8001421ef0086a0a90017
:100550001fe1a800150037001fe1a9000dc8bf006a
:100560000004e00003003200000720008040880003
:100570000c003700a00880008000eb00640007003a
:1005800082e22700c3c823005701070002002000b1
:1005900003122400750007003c00070000007800eb
:1005a000804088000d68ef008240a90086e0a90025
:1005b0000080fa004f03be004f02be004f01be0094
:1005c0004f00be003600f900004006003600f8007b
:1005d000809fbe00829fbe00849fbe00869fbe009b
:1005e0000000fa00a11680000010200000806000ca
:1005f0000000e000050032008220a8000a21ef0080
:1006000084e0a90013e1a8001500370013e1a90058
:100610000cc8bf000004e000030032000007200007
:10062000704088000c003700500880008000eb000c
:100630003700070082e22700c3c823002a01070011
:100640000200200003122400480007000f000700ea
:1006500000007800704088000c68ef008220a9003c
:100660008600a9000080fa004f03be004f02be00c2
:100670004f01be004f00be003600f90000400600ea
:100680000040da000000fe00000005000001be008e
:10069000210007000470a70003f0a1006509b10064
:1006a000160032000d0035006828e1000600350014
:1006b000f0ff2f00f1ff27000300e00013003b00d4
:1006c0000100280000000500000040008180480073
:1006d0008502e900fcff3a0008003700f88f42006d
:1006e00002003c008000eb00000005008100d1000a
:1006f0000080d3008502e800fcff3a000300e00020
:1007000002003b0060001000e080180000000600be
:100710006011b8007c023700c70ade00f107b200a2
:10072000f50fb20008003200e1cf420002003200b3
:100730000170a00024000500810f7000010032004c
:100740000408050044000500810f700002003a0013
:10075000140005008502e9000000400081c0480047
:10076000fcff3b000170a00024000500889fbe0034
:100770008a9fbe008c9fbe001b0020000202be00ac
:100780000586680006002800060666004709de00a8
:10079000f20fb200820032000243e8008000320013
:1007a000c729de00f30fb2007d0032000343e800ea
:1007b0007b003200f107b2000170a000f507b20023
:1007c0000570a000c708dd004903de0086807000c8
:1007d0004700dd00c72add004923de008682720063
:1007e0004722dd00030551000403500085835800b3
:1007f0000300310000004000818048000a05e90044
:100800008c1f78008a9fbe0004005000858058002d
:100810000402420085824a000000400081804800b6
:100820000005eb000004be006033b8000406be0003
:100830000d48e10056003100110009004dccd800f0
:100840000c01b8000d02b8008481410060824a00aa
:100850008283530003045c0084845c0060055d00b7
:100860000a00e00025003a00800578000d40e10014
:100870004900310088007800070078001100090065
:100880004d88d8000c01b8000d02b80084814100e9
:1008900060824a006003110083835b0004045c00f3
:1008a000e0845c000900e00021003a004f01be0036
:1008b0000300e0002b003200e30160000706730034
:1008c0008c81710001003200640070004200de0083
:1008d0004e5edd000c007000c258de0001e0a0009a
:1008e00083010700cf017800818071004f06be00b0
:1008f0004f05be004f04be00000006008c8343007d
:100900000d044c00e0844c0060054d000000e9003f
:100910000a00e000d4ff32008c8343000d044c0039
:10092000e0844c0060054d000000e900ceff370078
:100930000c0343008d834b0060044c00e0844c00aa
:100940000000e9000900e000d8ff32000c0343007a
:100950008d834b0060044c00e0844c000000e900f3
:10096000d2ff37004200de004e5edd000c0070005a
:10097000c258de0001e0a000cf0178000300e000d3
:10098000daff320060001000e0801800d7ff370067
:10099000f0ff2f00aaff3700f0ff2f00b9ff37004c
:1009a0000404be002f010700870678000004fd0044
:1009b0008104fd002b010700078366000678a30071
:1009c000030032000960a7000800be002c003700b9
:1009d0000d78a300020032000800be002800370096
:1009e0000778a30026003a0001f0a10009f0a10059
:1009f0000668a30003003200f1ff2700f0ff2f007c
:100a0000baff37000d68a300030032000800be00e3
:100a10008c807000b5ff37000768a30007003a001c
:100a20000648a30003003200f1ff2700f0ff2f006b
:100a3000aeff37000d48a300030032006000b8008d
:100a40008c807000a9ff37000748a3000400320023
:100a500001f82700000020008c807000a3ff370001
:100a6000760107000004fd008104fd000205780006
:100a7000720107000802be008a01780059ff3700a2
:100a80000160a00012022000f240880097ff3700aa
:100a90000100e000120032000500e000100032000a
:100aa000889fbe008a9fbe008c9fbe000006eb00a0
:100ab00001f8a3000300320060001000e08018007d
:100ac0000cf0a00005f8a300030032006002120041
:100ad000e0821a000cf0a2008005eb0041ff370015
:100ae0006000b800020005000383680007002800ca
:100af00007036300470ade000480a100c71ade0076
:100b00000580a100f70f20000720e100420032001d
:100b10000728e10040003200889fbe008a9fbe0087
:100b20008c1f7800f107b200f307b2000400e00068
:100b3000640032000170a0000500e000680032008f
:100b40000370a00085054200eb07b1000204b80065
:100b50000302b8008484440060854a00020ab80099
:100b6000848444000a854a00030ab800040545004d
:100b7000040033000804d0008984d2000a85d20022
:100b80008b05e9006158e1003d00350002102000ae
:100b9000090161000308200089816100f707200036
:100ba0008783640008867300c84cde00c853dd00ec
:100bb000878474004855de000300e0000600320020
:100bc00082037600040032008904e80060054d00cd
:100bd0000a88a3000c003a00f70f20000758e10034
:100be00044003d000a70a100c75ddd000a85750064
:100bf0008a007300090078004f0678004f05be0098
:100c00004f04be00000006000a05d1008984d3000d
:100c10008b05e800f0ff3700881f78000604780095
:100c200090000700070278000001fd008101fd002f
:100c30008c00070087027800850372000778a30004
:100c4000050032000001fd008101fd009f0007004a
:100c50004f04780000000600850372000748a300d7
:100c600003003200f0ff2f00f1ff2700f8ff3700ec
:100c70000000200001f8270088807000f4ff370092
:100c8000880178004848dd00808171004848de0016
:100c9000c850dd0001007000c850de000604780076
:100ca0000b0178001600070088807000d2ff370023
:100cb0000500e00005003200170020003a000700a0
:100cc0009dff370081037000f9ff3a00860078002d
:100cd0004f0678004f05be004f04be00000005001f
:100ce00083037100f9ff3200270020002e00070067
:100cf00094ff370001f8270086807000f4ff37006a
:100d00000100e00026003200610111007810e100ce
:100d100023003c006022b8007010e10004003500a0
:100d200080027800010078008000eb007001510023
:100d30000200e0000900340070031100062add0003
:100d4000822ade008603dd00878272000200de0058
:100d5000860bdd00070070008208de0084817100d0
:100d6000f4ff2700048262008481710004002800df
:100d7000848262006102600005f0a60000000600a7
:100d800004827100070032000000e800e0804800a3
:100d9000000006000002be006000b800efff370050
:100da0006000b80000000600889fbe000004eb0051
:100db0006138e10016003a000100e00008003a0046
:100dc000c800de004800dd00880020000100e000cf
:100dd00003003a00c800de004800dd00680444005b
:100de0008184cf00e9845400060034008908dd00c6
:100df000f08314008703de00878070000900dd00a7
:100e000009044400610214004f04be000000060003
:100e10000300e00008003a00c811de004811dd00c0
:100e2000880020000300e00003003a00c811de0043
:100e30004811dd00680444008384cf00e984540035
:100e4000060034008919dd00f08314008713de00ea
:100e5000878171000911dd0009044400e1021400da
:100e6000e9ff37002700200001f0a700170020004d
:100e7000470bde00f60fb200040032000643e80024
:100e80000a0032004702b3000000060001037800a8
:100e9000f607b2000603700002003a000703b30031
:100ea000000006008702b30000000600010378007e
:100eb000f607b20006037000020032000770a000bf
:100ec000000006000760a000000006000478a300f0
:100ed000040032000578a300030032000168a3007b
:100ee00001003a000200be000160a0000000060000
:100ef00081017000270032008002eb0001f8a3009e
:100f00000300320060001000e0801800150020008f
:100f1000f40720000202420020003400f703200002
:100f2000870360000604200000036300020820001d
:100f3000000161004700de00c909dd00008071008a
:100f4000c708de000600e0000800320087037100d9
:100f5000060032001000b0000180b0000188a3003c
:100f600002003200c108de000402e800f107b2000e
:100f7000f30f20000320e10003003d004722dd00c5
:100f8000810072002900370001f827000000eb0003
:100f9000260037006000b80000000600680212005a
:100fa0007f20e100020034006000b8001f0037001d
:100fb0006011b8007020e100040035008001780065
:100fc000010078008000eb00700252000400e00095
:100fd00009003400f00312000719dd008419de0057
:100fe0000703dd00868171000400de00070bdd00d1
:100ff000060070008408de00f7ff2700838363008b
:101000008703710006002800030363000700320015
:101010000700e00003003a006101600002817300f4
:10102000020032001000b0000180b0000500a600f0
:101030000000060001f0a000000006004f0ade00dc
:101040004709de00f107b200f20fb2000b003200d8
:10105000f207b1000170a000c708dd00c901de0081
:10106000838070004700dd000400a6000000060039
:1010700060001000e080180000000600810f700082
:1010800001003a00000006008182cf000500e00068
:1010900010003e008082cf00ee8242007028e10006
:1010a0000400390007003e00800078000000eb00db
:1010b0000e003700708312008600de000500dd00a0
:1010c0000a003700708352008600dd000000eb004c
:1010d00006003700e28252008508dd0070831200ae
:1010e0000603de00868070000500dd007507b00095
:1010f0000501ea000400a6000000060060001000e0
:10110000e080180000000600889fbe008a9fbe0095
:101110000082700004027100048271002600320017
:101120000004be000200be006011b8006b09200080
:10113000950220000182cf000a0039000541b1006c
:101140000082cf00070039000541b1000982cf00bd
:10115000040039000541b1000882cf0001003900c8
:101160000541b10005425200120032000a003b0066
:1011700082817100610164008100d1000080d30090
:101180008984d3000884d3008b05e8000442e8007a
:10119000f7ff3a00070037000804440089844c0038
:1011a00000004800818048008b05e9000442e90006
:1011b000f9ff3a00030007004f05be004f04be00d0
:1011c0000000060081002000618055000b003d00fa
:1011d0000b00200061fe2f000100e1001d00340023
:1011e00082817100610164008904d1000884d30008
:1011f0000000e800faff3a0071002000610064007e
:101200000300700002006000090032006104440025
:10121000e0844c000988a500050032008b05e80039
:101220006808e10002003a008904d1000884d30074
:10123000f20f20000258e10005003d00c75ddd000f
:10124000f907b200898075000800780000000600e8
:0c1250000bf827008b0078000000050060
:020000040000fa
:10125c00496e000069630000696a0000616c00005f
:10126c00697a000061630000696a00006120000077
:10127c007a61000076720000736500006e610000f8
:04128c00210000003d
:020000040000fa
:101290000000fa0000042000a01088000d42a90000
:1012a0008d20a80071108000c0ff2f00008060001a
:1012b000701088000de2a8000f42a8000080fa001c
:1012c000000006000200fa00000f78000000000095
:1012d0007110800000102000008060000000e0001d
:1012e000fbff32006010800066006000e60f5000d7
:1012f00003003a009e007800811088000300370048
:10130000f00f20001e006000801088000080fa00ae
:10131000000006000000fa00881f78000004780032
:101320000e003700184078000000fb00e5ff0700c2
:1013300018407800ed4f500002003a00a000200055
:10134000e0ff070018407800ea4f500002003a0022
:10135000d0002000dbff07000804e80018407800f8
:101360000004e000efff3a004f0478000080fa002c
:10137000000006000400fa008e80e8008008780073
:101380000e80e80010007800c300de00500c220040
:101390000008b8004408de00004f78001e80fb0003
:1013a0000003b000c7ff07009e80fb0080c12f0034
:1013b0000088b900000078008e80e8009100780075
:1013c000808040000e80e800010878000e80e80070
:1013d00010007800c200de00b04721000008b8000d
:1013e0000100d100004f78001e80fb000003b00018
:1013f000b4ff07009e80fb00c0f92f000088b900f1
:10140000000078008e80e800910078008080400025
:101410000e80e800010878000e80e8009000780057
:10142000d0cc2c000008b8004308de00004f780044
:101430001e80fb000003b000a2ff07009e80fb009f
:1014400060ff2f000088b900000078008e80e8005f
:1014500091007800808040000e80e800010878004c
:101460000e80e800100078000003b00095ff070030
:101470000080fa00000006000000fa0000042000ce
:10148000f01088008f00a800c1108000c0ff2f005e
:1014900000806000c010880017e2a8001942a80070
:1014a0000080fa00000006000200fa00000f780039
:1014b00000000000c11080000010200000806000cb
:1014c0000000e000fbff3200b0108000660060000a
:1014d000e60f500003003a009e007800d11088000b
:1014e00003003700f00f20001e006000d0108800bd
:1014f0000080fa00000006000000fa00881f780053
:101500000004780004003700184078000000fb0059
:101510000804e800e4ff0700184078000004e00039
:10152000f9ff3a004f0478000080fa00000006003e
:101530000400fa008e80e800800878000e80e80041
:1015400010007800c400de00703420000008b800ed
:101550004308de00004f78001e80fb000003b0004f
:10156000d1ff07009e80fb00008f2d000088b9008e
:10157000000078008e80e8009100780080804000b4
:101580000e80e800010878000e80e8001000780066
:10159000c300de00500c22000008b8004408de0042
:1015a000004f78001e80fb000003b000beff070064
:1015b0009e80fb0080c12f000088b90000007800e9
:1015c0008e80e80091007800808040000e80e80066
:1015d000010878000e80e80010007800c200de00ec
:1015e000b04721000008b8000100d100004f78008a
:1015f0001e80fb000003b000abff07009e80fb00d5
:10160000c0f92f000088b900000078008e80e80043
:1016100091007800808040000e80e800010878008a
:101620000e80e80090007800d0cc2c000008b800b4
:101630004308de00004f78001e80fb000003b0006e
:1016400099ff07009e80fb0060ff2f000088b90013
:10165000000078008e80e8009100780080804000d3
:101660000e80e800010878000e80e8001000780085
:101670000003b0008cff07000080fa0000000600a5
:101680000200fa00000f78000428ef0005e1a8002e
:1016900000000000204080009e0f5000fdff35003c
:1016a00005e1a9000080fa00000006000200fa002f
:1016b000000f78000228ef0021e1a80000000000e0
:1016c000104080009e0f5000fdff350021e1a90071
:1016d0000080fa00000006000000fa00d642a800d0
:1016e000a0002000e6ff0700d642a9000080fa0013
:1016f000000006000000fa00d662a800a00020004a
:10170000dfff0700d662a9000080fa000000060093
:101710000000fa00a1e2a800a0002000e3ff0700fb
:10172000a1e2a9000080fa00000006000000fa0013
:10173000a0002000100c8800210c800080ff2f00ea
:10174000008060006000b300200c880081088000e9
:10175000f0fc2f00008060008008880011e1a800e4
:101760000080fa00000006000000fa00803e200021
:10177000400c8800510c800080ff2f00008060002a
:101780006000b300500c880081088000f0fc2f003e
:10179000008060008008880011e1a8000080fa0045
:1017a000000006000000fa00e222a800ca22a900f8
:1017b000deff0700cb82a800e202a900eaff0700d3
:1017c0000080fa00000006000000fa00e222a800f3
:1017d000ca22a90000192000d4ff0700cb82a8006c
:1017e000e202a90000192000dfff07000080fa00d4
:1017f000000006000000fa00e222a800ca22a800a9
:1018000000192000c9ff0700cb82a800e202a8004f
:1018100000192000d4ff07000080fa000000060035
:101820000000fa00e222a800ca22a8000019200045
:10183000beff0700cb82a800e202a800001920002a
:10184000c9ff07000080fa00000006000000fa004f
:101850008ffe070008ff07000f00070019000700b0
:10186000220007002c000700360007007300070065
:10187000880007003e000700a1e2a9000c68ef0005
:101880000d68ef00e09228001bff07001c28ef0006
:10189000c4ff0700feff37000000fa000021ef0040
:1018a000a0002000100888000421a9000481a900dc
:1018b00004a1a9008460a9008c60a8000080fa003f
:1018c000000006000000fa000621ef00401f200083
:1018d000600888001021a90084c0a9008cc0a8005d
:1018e00011e1a9000080fa00000006000000fa00e3
:1018f0000a21ef0000352c00700888001221a90091
:101900001281a90012a1a90084e0a9008ce0a8001e
:101910000080fa00000006000000fa001421ef0029
:1019200000352c00d00888001e21a9001e81a900c6
:101930001ea1a90086a0a9008ea0a8000080fa0020
:10194000000006000000fa001821ef00401f2000f0
:10195000e00888002021a9002081a90020a1a90079
:1019600086c0a9008ec0a8000080fa000000060012
:101970000000fa00a1a2a90001158000f0cf2f00fd
:10198000008060000015880001158000000e200016
:101990000100700000158800a022a8001115800029
:1019a00000002e000100700010158800a342a8005e
:1019b0001115800030fc2f00008060000030a00076
:1019c00010158800a222a900a202a90021158000fa
:1019d00000f021000100700020158800a4e2a8009a
:1019e0002115800000fc2f0000806000f001b30092
:1019f00020158800a782a900a682a90031158000c1
:101a000000ff2f0000806000301588003115800035
:101a1000f00f2f000080600030158800a822ef0032
:101a20001060200050158800a042a8008560a80022
:101a30008d60a8000080fa00000006000000fa0097
:101a4000c162a900c602a800c722a800c742a80018
:101a5000c762a900c782a900d202a900d222a900a8
:101a6000d242a900d262a900d302a800d322a800c2
:101a7000de02a800de22a800a802a900a922a9006f
:101a8000a942a900a962a800a982a8000080fa00c2
:101a9000000006000000fa008e00a8008600a900e1
:101aa0008220a9008ee0a80086e0a9008240a9005b
:081ab0000080fa0000000600ae
:020000040000fa
:101ab800000800001e000000000000001e080000d2
:0c1ac80002000000000000000000000010
:020000040000fa
:0200000401f009
:040000000587000070
:020000040000fa
:0200000401f009
:040004003f000000b9
:00000001FF
